:10000000544649531228010900000800000000006E
:10001000000000800000000059919D2300001000A6
:100020000000000000000000400000000000000090
:1000300000000000010000000000000000000000BF
:10004000544643530000100000D501005DF9F7BB92
:10005000000001200101100007011000090110003B
:100060000B0110000D0110000F0110001F01100006
:100070001F0110001F0110001F01100011011000CE
:10008000130110001F01100015011000AF35100002
:10009000AB3610001901100019011000658711001E
:1000A00019011000011310000713100019011000AE
:1000B000190110001F321000190110000D1310005B
:1000C000C3371000F9021000D91F100019011000E9
:1000D0000000000000000000000000000000000020
:1000E0000000000000000000000000000000000010
:1000F0000000000000000000000000000000000000
:1001000000000000000000000000000000000000EF
:1001100000000000000000000000000000000000DF
:1001200000000000000000000000000000000000CF
:1001300000000000000000000000000000000000BF
:1001400000000000000000000000000000000000AF
:1001500000F010F8FEE7FEE7FEE7FEE7FEE7FEE749
:10016000FEE7FEE7FEE7FEE701480047FEE7FEE7A1
:100170001F01100000F002F800F04AF80AA090E811
:10018000000C82448344AAF10107DA4501D100F052
:100190003FF8AFF2090EBAE80F0013F0010F18BFD5
:1001A000FB1A43F00103184704A9010024A9010028
:1001B0000A4410F8014B14F00F0508BF10F8015B5A
:1001C000240908BF10F8014B6D1E05D010F8013B43
:1001D0006D1E01F8013BF9D1641E03D0641E01F8C5
:1001E000015BFBD19142E4D370470000002300245F
:1001F00000250026103A28BF78C1FBD8520728BF37
:1002000030C148BF0B6070471FB51FBD10B510BD92
:10021000DFF80CD0FFF7F8FF04F04BFA18F083F981
:100220000000012003B4FFF7F1FF03BC18F082F9CE
:1002300000210028D8BF704700BF491C8842FBDC62
:100240007047704770477047704770477047017834
:10025000002908BF704710F8011F0029FBD1704723
:1002600082B0010F8DF80010C0F303618DF801100A
:10027000C0F303518DF80210C0F303418DF8031051
:10028000C0F303318DF80410C0F303218DF805107D
:10029000C0F303118DF8061000F00F008DF8070071
:1002A00000206A46115C0A2934BF303137311154BD
:1002B000401CC0B2082828BF0020F3D3401CC0B2A5
:1002C0000828FBD302B0704782B001098DF80010F6
:1002D00000F00F008DF8010000206A46115C0A2929
:1002E00034BF303137311154401CC0B2022828BF0E
:1002F0000020F3D3401CC0B20228FBD302B07047E9
:1003000082B0010B8DF80010C0F303218DF80110AD
:10031000C0F303118DF8021000F00F008DF80300F8
:1003200000206A46115C0A2934BF3031373111543C
:10033000401CC0B2042828BF0020F3D3401CC0B228
:100340000428FBD302B0704712484FF6FF710160DA
:1003500070471048104A0021016012681020506157
:100360000E48012203685A6003684022DA6003687D
:100370004FF40C621A6102685161026840F6FF7125
:1003800011620068EA21016305A010F8011F00292D
:10039000FBD1704700700020809B1100709B110002
:1003A00055415254204F50454E21210D0D00000063
:1003B0000B0ACAB2FD49D1F800C0CCF81C0043F4C6
:1003C000FE400B6858610868006840F00103086847
:1003D00003600868C06810F0010FFAD008688068F0
:1003E0000B6840F00100986002F07F024FF400407B
:1003F00040EA022208684261086800680B6840F021
:10040000010018600868C06810F0010FFAD0086891
:1004100080680B6840F001009860086842610868D5
:1004200000680A6840F0010010600868C06810F0B9
:10043000010FFAD0086880680A6840F001009060F7
:1004400008688069C0B2704700F07F0041EA00216F
:10045000D6480268516101680968026841F00101EB
:1004600011600168C96811F0010FFAD0016889684C
:10047000006841F001018160704700F07F014FF496
:10048000004040EA0122C94801684A6101680968E0
:10049000036841F0010119600168C96811F0010F9A
:1004A000FAD001688968036841F001019960016828
:1004B0004A6101680968026841F001011160016840
:1004C000C96811F0010FFAD001688968026841F02B
:1004D0000101916000688069C0B2704710B58C4618
:1004E0000446FFF7CAFF20EA0C01E0B2BDE8104065
:1004F000AAE77047AD4810B502680121C2F814138D
:1005000002686FF0FE21C2F8201302689921C2F838
:10051000301300680321C161DFF894C2A54C0023A9
:100520003CF82300C0F307217F20FFF78DFFE01880
:1005300090F8C0161CF82300FFF786FF5B1CB3F58C
:10054000A67FEDDB10BD10B504F0BAF8974B8446DA
:100550004FF004301968086219680014486219687D
:1005600001200861196888601968486000217F20AF
:10057000FFF76AFF40210120FFF766FFBCF1050F7E
:1005800018BF10BD00201968C1F8100310BD874ABC
:1005900000B512680321D16100284FF000014FF02F
:1005A0007F0006D0FFF750FF032100205DF804EB29
:1005B0004AE7FFF749FF012100205DF804EB43E71C
:1005C0007A4A00B512680321D16100284FF000017A
:1005D0004FF07F0006D0FFF737FF012100205DF8C4
:1005E00004EB31E7FFF730FF03210020FFF72CFF7A
:1005F000002108465DF804EB26E76C4900B5096860
:100600000320C86100217F20FFF71EFF00205DF856
:1006100004EB32E7654900B509680320C861002191
:100620007F20FFF711FF082102205DF804EB0BE7A4
:100630005E490A68926C0123096803FA00F01043CE
:1006400088647047704759490968896D80F00100D6
:100650000122801C02FA00F00840704753480168EC
:10066000496C026841F4006151640168496C00689A
:1006700021F40061416470474C4A012303FA00F001
:1006800000291168096C03D0084311680864704799
:1006900021EA00001168086470474449002808688E
:1006A000C06D0AD00A6840F00200D0650868C06DCD
:1006B000096840F01000C86570470A6840F0010002
:1006C000D0650868C06D096840F00800C8657047CB
:1006D0002DE9F043DFF8D49080462025D9F80010AA
:1006E00009270220C861002404217F20FFF7ACFE07
:1006F000A44611E0BCF1030F03D0BCF1060F0BD1EF
:1007000005E005217F20FFF79FFE002404E006217D
:100710007F20FFF799FE00240023002D88BF08EBFF
:100720004C1608D9F15C2046FFF78EFE601C5B1C5E
:10073000C4B29D42F6D80CF1010C6745DAD8D9F85D
:1007400000100120C861002404217F20FFF77CFEF7
:10075000A446002F13D8BDE8F083BCF1030F03D0EB
:10076000BCF1060F0BD105E005217F20FFF76CFEE1
:10077000002404E006217F20FFF766FE002400230A
:10078000002D88BF08EB4C160AD9F01890F82011FC
:100790002046FFF759FE601C5B1CC4B29D42F4D892
:1007A0000CF1010C6745D8D8BDE8F083849B11009B
:1007B000000000202856002070B5B94904460320E7
:1007C0000968C8610425E9B27F20FFF73DFE0023D8
:1007D000E1B2D8B2FFF738FE03F12000E1B2C0B2B7
:1007E000FFF732FE03F14000E1B2C0B2FFF72CFE8A
:1007F0005B1C202BECDB0BF0A2FC002808BF0024C4
:100800006D1C072DDFDB70BD70B50546002403F0BD
:1008100057FF022804D003F053FF052804D007E057
:100820000BF08DFC18B921E008F09DFFF0B19D4C54
:1008300003F046FF9A4B84464FF004301968086273
:1008400019680014486219680120086119688860F5
:100850001968486000217F20FFF7F6FD4021012044
:10086000FFF7F2FDBCF1050F06D101E08E4CDFE78A
:1008700019680020C1F8100319680320C861DFF867
:100880002CC201233CF82300C0F307217F20FFF78F
:10089000DBFDE95C1CF82300FFF7D6FD1CB1E11875
:1008A000E85C81F8C0065B1CB3F5A67FEADB70BD8F
:1008B0007B4803210268D16102680121C2F8141348
:1008C00002681121C2F8301300684FF00111C0F81E
:1008D000201300217F20B7E5714B00B51968032074
:1008E000C86100217F20FFF7AFFD40210120FFF705
:1008F000ABFD00210320FFF7A7FD02217F20FFF7BA
:10090000A3FD15210220FFF79FFD89210420FFF799
:100910009BFD0F217F20FFF797FD01210320FFF7AB
:1009200093FD19680120C1F8140319681120C1F85A
:10093000300319684FF00110C1F8200303217F2014
:10094000FFF782FD01210020FFF77EFD002101203D
:10095000FFF77AFD21210520FFF776FD04216D20A8
:10096000FFF772FD08216E20FFF76EFD10216F204A
:10097000FFF76AFD01217F20FFF766FD08210020B7
:10098000FFF762FD04210120FFF75EFD1868406C4F
:10099000196840F4006048641868406C196820F4D5
:1009A0000060486400BD3E4B00B519680320C86173
:1009B00001467F20FFF748FD09210320FFF744FD92
:1009C00001210F20FFF740FD19680120C1F8140331
:1009D00019689920C1F8300319686FF0FE20C1F83A
:1009E000200303217F20FFF72FFDFF210020FFF7C9
:1009F0002BFD03210120FFF727FD21210520FFF713
:100A000023FD01217F20FFF71FFD00217520FFF747
:100A10001BFD012176205DF804EB15E57047244BA2
:100A200000211A46E0FB03214809C0EB00108000BA
:100A3000704700207047002070470020704700205A
:100A40007047084670470020704770470020704785
:100A5000704770470020704770477047002070470C
:100A60000020704700207047002070477047704793
:100A70000020704770477047704700207047002083
:100A800070477047704770470020704700207047DC
:100A900070470020704770477047704770470000EC
:100AA000849B1100285600203208002000000020FE
:100AB0005BB0055BFF4910B509680320C8610021E0
:100AC0007F20FFF7C1FC02210020FFF7BDFC0121C0
:100AD0000220FFF7B9FC0121BDE810400020FFF71C
:100AE000B3BCF44910B509680320C86100217F2018
:100AF000FFF7AAFC02210020FFF7A6FC012102203B
:100B0000FFF7A2FC0121BDE810400020FFF79CBCCC
:100B1000E94808B501684969C1F3072100910168F6
:100B20004969009AC1F307219142F8D0E148016870
:100B3000D1F82C13006841F00401C0F82C13FFF722
:100B40005CFD002808BF08BD0020BDE80840FFF795
:100B500037BDD94808B501684969C1F3072100913B
:100B600001684969009AC1F307219142F8D0D14840
:100B70000168D1F82C13006841F00401C0F82C136F
:100B8000FFF73BFD002808BF08BD0020BDE8084076
:100B9000FFF716BD10B503F093FD052809D0C54831
:100BA0000068D0F82C0310F0040F0CBF01200020C7
:100BB00010BDC2480068006810BD70B50546FFF75B
:100BC000E9FF012818BF70BD03F07AFDB94C032678
:100BD000052827D0FFF7BDFF012D18BF70BD206885
:100BE000406C216840F40060486400BF00BF00BF53
:100BF0002068406C216820F4006048642068C66169
:100C000000217F20FFF720FC02210020FFF71CFCC1
:100C100001210220FFF718FCBDE8704001210020EF
:100C2000FFF712BC0020FFF7CBFCD8E710B5FFF7A9
:100C30008AFC0120FFF7C1FF102004F09FF801217A
:100C4000052002F00EFA0121062002F00AFA9C4962
:100C50000120887010BD10B5602002F058FA6020A5
:100C600002F048FA934903200968C86410BD944A09
:100C700001465079002818BF0120002918BF012122
:100C8000517170478E4A11691061084670478C484F
:100C900000210171C17001898A4817F0A6BB8848FC
:100CA00000210171C1700189864817F09EBB00B513
:100CB00083B000208DF80000ADF8040003F000FDC3
:100CC00002281CBF03B000BD0BF039FA02281CBF7C
:100CD00003B000BD012077490968C86103217F2066
:100CE000FFF7B2FB89210520FFF7AEFB6721062045
:100CF000FFF7AAFB45210720FFF7A6FB23210820C9
:100D0000FFF7A2FB03B0F12109205DF804EBFFF728
:100D10009BBB2DE9F14F88B0002004464FF0100B2B
:100D20000290009003F0CCFC022806D003F0C8FC2F
:100D3000052808BF08F017FD01E00BF000FA03F0EA
:100D4000BFFC614905280BD0086890B1012808BF95
:100D500001240ED002280BD0032808BF032408E08A
:100D60000868022814BF4FF0360B4FF0000BEBD190
:100D70000224564856494FF0200900680969406B23
:100D8000FF3100F5E03021F0FF01503004FB010598
:100D900012200026069001E0032E01D214271AE04B
:100DA000F01E032838BF152715D3B01F032838BFFE
:100DB000162710D3A6F10900032838BF24270AD329
:100DC000A6F10C00032838BF252704D3A6F10F0095
:100DD000032838BF26270298B84209D03548029721
:100DE00039090068C16107F00F017F20FFF72CFB74
:100DF0000BF0A5F900280CBF4FF07F084FF0480812
:100E00000024B9F1000F35D9380905903148A0FB0D
:100E100006104008A0EB800000EB060A2E48A0FB5D
:100E200006104008404200EBC0008119089800EB12
:100E300041100490089800EB461003900598012893
:100E400020D0C4F11F0000EB4A1080B201900122B3
:100E50006946284601F0C5FB6D1C03F031FC0228F1
:100E60004BD050E0202C45F10005E7D3601CC4B204
:100E70004C45F7D3701CC6B2069886428CD309B095
:100E8000BDE8F08F04EB4A1080B201900122694660
:100E9000284601F0A6FB6D1C03F012FC022805D1C8
:100EA0000098804502D880384F281BD203F008FCF8
:100EB000052813E0849B1100A09B1100889B110062
:100EC0003005002020110020C4050020A0060020CD
:100ED000A4060020ABAAAAAA398EE33804BF009862
:100EE000FF2801D1CDF800B00098C1B20398015598
:100EF0000198C0B2FFF7A8FAB8E70098804502D879
:100F000080384F2806D203F0DBFB052804BF009889
:100F1000FF2801D1CDF800B0049800992044C9B24F
:100F200080F820110198C0B2FFF78EFA9EE7F949C8
:100F3000C860704710B503F0C3FB052802D0BDE8B8
:100F4000104006E6FFF726FE012818BF10BD00205E
:100F5000BDE81040FFF734BB70472DE9F04F8046E5
:100F600083B00C460120FFF728FE03F0A9FB012700
:100F7000E94D06464FF00009002C78D003F0A0FBA5
:100F8000052812D0FFF7E5FD606800281CBF206827
:100F900000286CD06FF0FE2A4FF0990B052E0CD074
:100FA000022E27D0012E40D058E0FFF7F3FD012894
:100FB00004BF0020FFF704FBE6E708F0D4FB02289B
:100FC00001D080B14AE0D4E90010FFF71DFC286889
:100FD000C0F814732868C0F820A32868C0F830B39C
:100FE000FFF7E1FC3AE0D4E90010FFF70DFCFFF752
:100FF00073FC33E00BF0A3F8022801D070B12DE0B0
:10100000D4E90010FFF700FC2868C0F814732868C2
:10101000C0F820A32868C0F830B31FE0D4E900105E
:10102000FFF7F2FBFFF744FC16E003F04CFB20B1A6
:1010300003F049FB022808D010E0D4E90010FFF7C4
:10104000E3FB2868C0F8147308E0D4E90010FFF748
:10105000DBFB2868C0F81473FFF700FB2868C0F8B2
:101060002893AC48C0F80C80A068FFF752FE8DF8BA
:101070000090ADF8049003F023FB02281DD10BF083
:101080005EF8022819D12868C76103217F20FFF785
:10109000DBF989210520FFF7D7F967210620FFF743
:1010A000D3F945210720FFF7CFF923210820FFF7C7
:1010B000CBF9F1210920FFF7C7F9964C84F8049089
:1010C00084F803902189954817F08FF9C4F810909F
:1010D000607900206071602002F019F8602002F051
:1010E00009F829680320C86403B0BDE8F08F6020C8
:1010F00002F004B810B5602002F000F8BDE810401E
:1011000001205AE58348C06870478248007800286B
:1011100018BF0120704738B500240094FFF73AFD4E
:10112000002818BF38BD7B480471C47001897B4812
:1011300017F05BF9DFF8E0C1DCF80000406CDCF888
:10114000001040F40060486400BFDCF80000406C10
:10115000DCF8001020F400604864714D7148297873
:1011600000290168496914BFC9B2C1F30721009180
:1011700020D001684969009AC9B29142F9D000684B
:101180000221C161DCF80000D0F82C03DCF800106B
:1011900020F00400C1F82C03DCF80000C0F8104374
:1011A000FFF72BFA002818BF38BD0120BDE83840F2
:1011B000FFF706BA01684969009AC1F30721914215
:1011C000F8D0002301684969C9B2009101684969F2
:1011D000009AC9B29142F9D0591CCBB2042BF1D379
:1011E00001212970CBE770B503F06AFA0025494C5C
:1011F000052803D02570BDE870408CE7FFF7CAFCD6
:10120000002818BF70BD2571E5702189434817F08B
:10121000ECF8257040480168D1F82C13006821F0E3
:101220000401C0F82C13BDE870400120FFF7C8B9D5
:10123000384901200870704770B503F041FA354C09
:101240000125052808D0FFF7A5FC002818BF70BDB0
:101250002570BDE870405EE7FFF79CFC002818BFD2
:1012600070BD00202071E07021892C4817F0BDF876
:101270002570BDE870400120FFF7A2B901209CE471
:1012800070B5244C0025E57003F01AFA052803D048
:101290002570BDE870403EE7FFF77CFC002818BFD2
:1012A00070BD2571E57021891C4817F09EF82570E6
:1012B00019480168D1F82C13006821F00401C0F826
:1012C0002C13BDE870400120FFF77AB9114A51692B
:1012D0005061084670470F49886170470D48806922
:1012E00070470C48407870470A4948707047012899
:1012F00088BF70470C4900280868406E04D0096810
:1013000040F0020048667047096840F001004866F6
:101310007047000030050020849B11002011002040
:10132000A6050020A09B1100809B1100012888BF0A
:101330007047F94900280868406E04D0096820F019
:10134000020048667047096820F00100486670474F
:10135000002000F03BBC012000F038BC10B5EF4C81
:10136000E069401CE061EE480168096D006841F0E9
:1013700004010165FFF772F9FFF74CF920780028A6
:101380001CBF0120FFF719FC6069002818BF8047C7
:10139000E448016841F40061016010BD10B501200E
:1013A000FFF70BFCBDE8104000F04DBCDE48704775
:1013B000DE487047D948006A7047D848406A70478D
:1013C000D648806A7047D549002008624862886222
:1013D0007047D74900EBC00001EBC010704748438D
:1013E0004FF6FF7101EA4000CC4908817047D14AAD
:1013F000107051707047CF49085C7047F0B50746D0
:10140000A1B0202401210220FFF736F9CA4D0021A6
:101410006E46286830F8110026F81100491CA142D8
:10142000F7D300210220FFF727F901210020FFF761
:1014300023F90021002C09D9286806EB410230F875
:101440001100491CA2F840008C42F5D80021084642
:10145000FFF712F9A2006946384616F025FF21B0C1
:10146000F0BD70B50E46AD490500E0B04FF080000C
:1014700008814FF020044FF001010CBF052004202B
:10148000FFF7FAF8AC4900206B46096801EB05311B
:1014900001EB800202F58052D2F800C043F820C070
:1014A00003EB800CD2F88020401CCCF88020A042B6
:1014B000EED3002D4FF0000114BF04200520FFF7EC
:1014C000DBF8E2006946304616F0EEFE60B070BD13
:1014D00070B5040091480E464FF0010105890CBF1C
:1014E00005200420FFF7C8F893482A46006800EB5F
:1014F000043000F58051304616F0D6FE4FF0000162
:1015000024B1BDE870400420FFF7B6B8BDE87040D4
:101510000520FFF7B1B810B590B02022002100914E
:10152000019102910391049105910691079108910F
:1015300009910A910B910C910D910E91EC460F912E
:1015400000EB410430F81130B4F8404223442CF849
:101550001130491CC9B29142F2D35200614616F0D3
:10156000A3FE10B010BDF0B56C4F734EADF2844DBC
:1015700000243D89002C4FF001010CBF0520042000
:10158000FFF77AF830682A4600EB043000F5805106
:10159000684616F0CEFE002C4FF000010CBF05206F
:1015A0000420FFF769F8641C022CE2DB0020FFF73F
:1015B000BDFE0120FFF7BAFE0DF2844DF0BD584A82
:1015C0005E490020136803EB8003D3F8C03021F894
:1015D0001030401C0728F5D31068D0F8E40048828A
:1015E00070474F4A564B002818BF00201DD0116885
:1015F00001EB8001D1F880110904090C18BF23F810
:101600001010401C2028F2D30020116801EB80014B
:10161000D1F880120904090C1CBF03EB400CACF894
:101620004010401C2028F0D37047116801EB800166
:10163000D1F800110904090C18BF23F81010401C40
:101640002028F2D30020116801EB8001D1F80012AC
:101650000904090C1CBF03EB400CACF84010401C03
:101660002028F0D37047F8B504460020009003F01E
:1016700027F80126294D052809D00AF060FD002829
:1016800020463DD0FEF7DFFF00285BD013E008F0D6
:101690006AF80228204603D0FEF7D5FFE0B123E028
:1016A000FEF7D1FF38B984F001042046FEF7CBFFE6
:1016B000002808BFF8BD1E492046FFF709FFFFF7C5
:1016C0007EFF2046FFF78DFF2046FFF72FFE2E718D
:1016D00084F00100E870F8BD84F001042046FEF7B4
:1016E000B2FF002808BFF8BD11492046FFF7F0FE01
:1016F0002046FFF71BFE2E7184F00100E870F8BD54
:10170000FEF7A1FF0028EFD184F001042046FEF788
:101710009AFF0028E8D1F8BD809B11003005002019
:10172000849B110064050020F4100020FD100020AF
:101730002011002036050020A89B11002016002053
:10174000A015002084F001042046FEF77CFF00284D
:10175000B1D1E0E7F8B50020009002F0B1FF01251B
:10176000FE4C05280CD00AF0EAFC00284FF00006D9
:1017700030462FD0FEF767FF002808BFF8BD1AE0FB
:1017800007F0F1FF02284FF0000630460ED0FEF7BA
:101790005AFF002808BFF8BDF1493046FFF798FE10
:1017A0003046FFF7C3FD2571E570F8BDFEF74BFF2E
:1017B000002808BFF8BDEA493046FFF789FEFFF769
:1017C000FEFE3046FFF70DFF3046FFF7AFFD2571F7
:1017D000E570F8BDFEF737FF0028DDD1F8BD10B584
:1017E0000446DF48FFF70AFEDC4901220A7184F053
:1017F0000100C87010BD70B5D84D04466879002846
:1018000004BFE878FFF72FFF2879002808BF70BDD4
:10181000D34AAB6902F5A060A0F18001A06100206D
:10182000C4E9021020616061C4E90032012070BD8A
:1018300070B5CA4D04466879002804BFE878FFF700
:1018400089FF2879002808BF70BDC54AAB6902F539
:10185000A060A0F18001A0610020C4E90210206115
:101860006061C4E90032012070BDBC4900200871EC
:1018700070472DE9F14F82B00020009012204FF008
:1018800020080025019001E0032D01D214261AE062
:10189000E81E032838BF152615D3A81F032838BF14
:1018A000162610D3A5F10900032838BF24260AD331
:1018B000A5F10C00032838BF252604D3A5F10F009D
:1018C000032838BF26260098B04209D0A5480096C4
:1018D00031090068C16106F00F017F20FEF7B4FDF9
:1018E0000024B8F1000F28D902984FEA161B00EB2C
:1018F000451A9D48A0FB05104008A0EB8000471941
:101900009A48A0FB05104008404200EBC000029935
:10191000284401EB4019BBF1010F16D0C4F11F00A0
:1019200000EB471080B2FEF7A8FD09EB040181F837
:101930002001601CC4B24445EDD3681CC5B20198B7
:101940008542A1D303B0BDE8F08F04EB471080B20D
:10195000FEF793FD0AF80400EBE70120704770479B
:10196000002070472DE970431C4616460D46804600
:10197000FFF710F95FEA00091CBF0120FFF71DF90E
:101980002819A84288BF01210FD900234446B34239
:1019900038BF202C06D201FA04F23A4218BF5B1C71
:1019A000641CF4E76D1C8542EFD3B9F1000F08BF4A
:1019B000BDE87083BDE8704362E42DE9F0479946C5
:1019C00014460E460746089DFFF7E4F85FEA000854
:1019D0001CBF0120FFF7F1F802F0D2FFDFF890C141
:1019E00006EB0903B342CCF8000088BF381913D9BD
:1019F0003C460AE0DCF80010097825F8021BDCF808
:101A00000010491C641CCCF80010844238BF202C04
:101A1000F0D3761C9E42EBD3B8F1000F08BFBDE8AF
:101A2000F087BDE8F0472BE4704710B5FFF70EF8DC
:101A30004A49488110BD494AC1B200F470635289D5
:101A4000914288BF11464FF0640C01FB0CF1B1FBD1
:101A5000F2F11A0A02FB0C1189B210F4805F12BF76
:101A600008B2484200B270470028B8BF404280B276
:101A7000B4BF00214FF4805100F470621143374A23
:101A8000C0B25289504341EA1020704708B509217D
:101A9000732000F02FF9BDF8001000F01F0021F0B6
:101AA000FF010843ADF800000D21732000F022F97A
:101AB000BDF8001000F01F0021F47F4141EA002032
:101AC000ADF80000BDF8000008BD7047FEF7D4BFB8
:101AD00028484FF41071006800F5405016F085BC9E
:101AE0002DE9F84F1220DFF888B0009022484FF01F
:101AF00020080024CBF8000001E0032C01DA1426B2
:101B00001AE0E01E032838BF152615D3A01F0328AE
:101B100038BF162610D3A4F10900032838BF2426A5
:101B20000AD3A4F10C00032838BF252604D3A4F15E
:101B30000F00032838BF2626B24509D009483109CD
:101B4000B2460068C16106F00F017F20FEF77CFC01
:101B50000025B8F1000F30DD10E000003005002056
:101B600020110020849B1100ABAAAAAA398EE33869
:101B7000D8050020A89B1100A85A002029484FEA48
:101B8000161980FB0410A0EBE070A0EB8000071991
:101B9000B9F1010F0EBF05EB4710C5F11F0000EBB7
:101BA0004710DBF80020C0B212F8011BCBF8002070
:101BB000FEF74AFC6D1C4545EADB0098641C844234
:101BC0009BDBBDE8F88F0020FEF735BF70B50446FB
:101BD00001280AD81448002C0168496E14BF41F04E
:101BE000020141F0010100684166104DA869401CE6
:101BF000A861296900291CBF204688472878002849
:101C00001CBF0120FEF7D9FF0948002C0CBF0221A0
:101C10000121006801650748016841F02001016069
:101C200070BD000056555555809B110030050020B1
:101C3000849B1100640500200549002814BF002082
:101C40000120087070477047704770477047000068
:101C50005C050020704710B501F03FFD234B24497F
:101C600000224C6824B14A6001F03CFD204610BDC2
:101C70001878002818BF0A80F3D10888B0F57A7F59
:101C800087BF30BF0A80401C0880EAE710B501F02A
:101C900024FD17484468002C08BF30BFFAD000214B
:101CA000416001F01FFD204610BD70B501F015FD2B
:101CB0000F4D6C682CB10020686001F013FD2046C8
:101CC00070BD30BF01F048FA0028F2D001F048FAA8
:101CD000A860EEE70020704730BF704772B662B66A
:101CE00070477047704772B662B670472C06002086
:101CF00060050020EE4BC2081B681A6401F0FC016D
:101D000041EA002040F4704040F080400068704795
:101D1000E74BC2081B681A6401F0FC0242EA00208B
:101D200040F4704040F0804089070068C90EC84008
:101D3000C0B27047DF4900200870DD490E200968F5
:101D40000864DD48007810F0800018BF012070475B
:101D500010B44FEAD00CD64B1C68C4F840C001F058
:101D6000FC0141EA002040F4704040F080400260F5
:101D70001868006C10F4007F04BF10BC704700BFEF
:101D80001868006C10F4007FF9D110BC7047DFF8C0
:101D900020C310B4DCF800C0C308CCF8403001F018
:101DA000FC0343EA002343F4704343F08043FF24E1
:101DB000D3F800C08B07DB0E9C402CEA040C9A4041
:101DC00010BC42EA0C02C3E7BC484FF4F46102685D
:101DD000116101684968026841F0020151600068C0
:101DE000032181617047B54810B502681021116068
:101DF00002684FF4F461116101684968026841F0BA
:101E000002015160006803218161072208217120CD
:101E1000FFF7BDFF0E2001F053F9BDE810400E2082
:101E200001F05BB9A24910B50968A548086207220C
:101E300001217020FFF7ABFFA0481021026811605C
:101E400002684FF4F461116101684968026841F069
:101E5000020151600068032181610722082171207D
:101E6000FFF795FF0E2001F02BF9BDE810400E2082
:101E700001F033B9914800210268116002684FF403
:101E8000E061116100680121816170478B49002088
:101E90000A6810600A68106109688861704787489D
:101EA00006210268116002680221516000688161A8
:101EB00070478248002102681160006881617047A4
:101EC0007E49002009680860704710B57B4C0820E7
:101ED000216808602168022088610722082171209A
:101EE000FFF755FF2068C06810F0080FFAD021688E
:101EF0000F20886010BD10B5044602460021F02076
:101F0000FFF726FF22460121F020FFF721FF22469E
:101F10000021F120FFF71CFF22460121F120FFF7ED
:101F200017FF22460021FC20FFF712FF2246012165
:101F3000BDE81040FC200BE74FF4807141EAD0026D
:101F40005B490B681A645F4A42EA00221060086825
:101F5000006C10F4007F08BF704700BF0868006C79
:101F600010F4007FF9D17047514A4FF4807141EA73
:101F7000D00112681164534941EA0020006870479B
:101F800008227020002102E7002270201146FEE6A0
:101F900047480168496E026821F400715166016882
:101FA000496E026841F4807151660168496E0268A9
:101FB00041F4806151660168496E006821F48061D6
:101FC0004166002270201146E1E639480168496EF9
:101FD000026841F4806151660168496E026821F42B
:101FE000806151660168496E026821F48071516612
:101FF0000168496E006841F40071416670472C48E1
:102000000168496E026841F4806151660168496E59
:10201000006821F480614166704725481B210268F1
:10202000116400680164704710B5244C2068C068D2
:102030002549086025484FF6FF7100680160206857
:10204000C06810F0100F0BD019491B200A681064EB
:102050000968086420688068216840F01000886082
:102060002068C06810F0080F05D0206880682168DB
:1020700040F0080088602068C06810F0040F0AD0A3
:1020800020688068216840F004008860FF220021F9
:102090007020FFF77CFE2068C06810F0010F08BFB9
:1020A00010BD20688068216840F00100886010BD84
:1020B000809B11006C05002000F20040A09B1100E5
:1020C0002222A26000F00040E8060020689B110078
:1020D0007047704770B50446C0F30741FE4D28684D
:1020E00001F0F5F9C4F30721286801F0F0F9E1B235
:1020F0002868BDE8704001F0EAB92DE9F041F74FDA
:102100000446164638680D46806A396840F0030078
:102110008862DFF8C4830321D8F8000001F0D7F902
:102120002046FFF7D7FF0024002E07D9D8F800007B
:1021300001F0FBF92855641CA642F7D83868806A7C
:10214000396820F0030088620120BDE8F081F8B50D
:102150000E0005464FF0000417D0042269462846B9
:10216000FFF7CBFF9DF800009DF801109DF80320BC
:1021700008409DF8021011400840FF2801D00020BF
:10218000F8BD641C2D1DB442E7D30120F8BD2DE934
:10219000F84391460D468046002401F0A8FA002736
:1021A000B9F1000F88BF6E4619D90422694640462E
:1021B000FFF7A3FF0023F05CE95C88421CBF601CB2
:1021C00084B25B1C042BF6D32D1D7F1C08F1040880
:1021D0004F45EAD3002C1CBF0020BDE8F883012046
:1021E000BDE8F8830120704770B5BC4C06462068F6
:1021F000806A216840F003008862B74D0521286895
:1022000001F065F9286801F090F92168896A22686F
:1022100021F0030191623070012070BD38B5AF4CE0
:102220002068806A40F0030120688162AA4D052180
:10223000286801F04CF9286801F077F92168896A6B
:10224000226821F0030191628DF8000010F0010076
:1022500018BF012038BD10B5A04C2068806A2168E5
:1022600040F0030088629C480621006801F02FF9C5
:102270002068806A216820F003008862012010BD78
:1022800070B50546FFF7CAFF00281CBF022070BDCD
:10229000FFF7E1FF914C2068806A216840F003005D
:1022A00088628D482021006801F011F92846FFF767
:1022B00011FF2068806A216820F003008862FFF720
:1022C000ADFF28B100BF00BFFFF7A8FF0028F9D17C
:1022D000012070BD2DE9F84F8046032701F007FA71
:1022E000DFF8F891DFF8F0A1FFF798FF10BBFFF7D8
:1022F000B2FFD9F80000806AD9F8001040F003005E
:1023000088622021DAF8000001F0E1F84046FFF78A
:10231000E1FED9F80000806AD9F8001020F003002F
:102320008862FFF77BFF28B100BF00BFFFF776FF91
:102330000028F9D145464FF48066002404226946FE
:102340002846FFF7DAFE9DF800009DF801109DF881
:10235000032008409DF8021011400840FF2806D0D5
:10236000381EA7F10107BFDC0220BDE8F88F641C0E
:102370002D1DB442E2D30120BDE8F88F2DE9F041D4
:1023800017460E460446FFF749FF00281CBF0220EF
:10239000BDE8F081FFF75FFFDFF84081D8F800006B
:1023A000806AD8F8001040F0030088624A4D02218C
:1023B000286801F08CF82046FFF78CFE0024002FDF
:1023C00006D9315D286801F082F8641CA742F8D86C
:1023D000D8F80000806AD8F8001020F00300886266
:1023E000FFF71CFF28B100BF00BFFFF717FF002851
:1023F000F9D10120BDE8F0812DE9F043C1B0884654
:10240000814603276E4601F072F94FF4807241460F
:102410004846FFF7B3FF002445464FF480726946F3
:102420004846FFF76AFE305D295D884205D07F1E71
:10243000E9D241B00220BDE8F083641CB4F5807F8E
:10244000F1D341B00120BDE8F0832DE9F041244CE7
:102450000646224FDFF880802068C0B00D4650B19C
:10246000D8F8000001F033F82268FF2AB8BF501CEA
:102470001BDA20603CE001F03AF9FFF7ECFE386827
:10248000806A396840F0030088620221D8F80000B1
:1024900001F01DF83046FFF71DFE2946D8F8000070
:1024A00001F015F82068401CE3E700202060386840
:1024B000806A396820F00300886200244FF480723B
:1024C00069463046FFF719FE68462A5D015D914274
:1024D0000AD0022040B005E09C9B1100809B1100B7
:1024E00070050020BDE8F081641CB4F5807FECD35A
:1024F0000120EFE770B50C46054601F0F8F8B4F599
:10250000807F88BF70BDFE490A68926A096842F000
:1025100003028A62FB480321006800F0D8FF2846C6
:10252000BDE87040D6E5F748006800F0FEBFF4480B
:102530000168896A006821F003018162704770B503
:102540000C46054601F0D3F821462846BDE8704008
:102550004FF48072D1E570B5E94D04462868806A71
:10256000296840F003008862E64E9F21306800F041
:10257000AEFF306800F0D9FF2070306800F0D5FF62
:102580006070306800F0D1FFA0702868806A296808
:1025900020F003008862012070BD70B5044601F090
:1025A000A6F8D74D2868806A296840F00300886241
:1025B000D44E9F21306800F08AFF306800F0B5FFEC
:1025C0002070306800F0B1FF6070306800F0ADFF3F
:1025D000A0702868806A296820F0030088620120C2
:1025E00070BD70B514460D46064601F080F82246CF
:1025F00029463046BDE870407FE52DE9F047DFF819
:10260000009304461746D9F800008846806AD9F836
:10261000001040F003008862BA4D0321286800F0E2
:1026200056FF2046FFF756FD0024B4EB970F18D253
:10263000286800F07AFF0646286800F076FF46EA30
:102640000026286800F071FF46EA0046286800F07E
:102650006CFF46EA006048F82400641CB4EB970F56
:10266000E6D3D9F80000806AD9F8001020F0030002
:1026700088620120BDE8F08770B514460D46064615
:1026800001F035F8224629463046BDE87040B4E7EF
:1026900010B5FFF7C3FD00281CBF022010BDFFF7D7
:1026A000DAFD974C2068806A216840F00300886258
:1026B00094486021006800F00AFF2068806A216861
:1026C00020F003008862FFF7A9FD28B100BF00BF1A
:1026D000FFF7A4FD0028F9D1012010BD10B501F0CD
:1026E00006F8FFF79BFD00281CBF022010BDFFF776
:1026F000B2FD834C2068806A216840F00300886244
:1027000080486021006800F0E2FE2068806A21684D
:1027100020F003008862FFF781FD28B100BF00BFF1
:10272000FFF77CFD0028F9D1012010BD70B50C46E3
:10273000054600F0DCFF002600F0D9FF4FF4807260
:1027400021462846FFF7D9FC761C04F5807405F570
:102750008075102EF0D3012070BD2DE9F047C0B078
:102760008846814600F0C3FF4FF0000A4646032723
:102770006D4600F0BCFF4FF4807231464846FFF7CB
:10278000FDFD00244FF4807269464846FFF7B5FC12
:10279000295D305D814205D07F1EEAD240B0022023
:1027A000BDE8F087641CB4F5807FF1D30AF1010A1B
:1027B00008F5807809F58079BAF1100FD6D340B0CA
:1027C0000120BDE8F0872DE9F04F81B00546ADF559
:1027D000804D000514468846000DEB4633D02F4649
:1027E0006FF30B07BA465E4600F081FF4FF0000919
:1027F00000F07DFF4FF4807231463846FFF77DFCD4
:1028000009F1010906F5807607F58077B9F1100F17
:10281000EED3C5F30B00C0F58056A64288BF26460E
:1028200058443246414615F03FFD5046FFF752FDF1
:10283000022850D059465046FFF78FFF02284CD04F
:102840003544B044A41BB4F5805F19D34FF48052D3
:102850004146584615F028FD2846FFF73BFD022863
:1028600039D059462846FFF778FF022835D0A4F51D
:10287000805405F5805508F58058B4F5805FE5D2A1
:102880001CB3D9462E4600F032FF002700F02FFF80
:102890004FF4807259463046FFF72FFC7F1C06F537
:1028A00080760BF5807B102FF0D3224641464846B8
:1028B00015F0FAFC2846FFF70DFD02280BD049461B
:1028C0002846FFF74AFF022807D0012001B00DF586
:1028D000804DBDE8F08F0A20F8E70B20F6E770B5D1
:1028E0000646FFF79BFC00281CBF022070BDFFF7C7
:1028F000B2FC034C2068806A216840F0030003E0CA
:10290000809B11009C9B11008862B14D01212868B9
:1029100000F0DDFD3146286800F0D9FD2068806AAE
:10292000216820F003008862FFF778FC28B100BF1F
:1029300000BFFFF773FC0028F9D1012070BDF8B586
:1029400000F0D5FEA34D2868806A296840F0030096
:1029500088629F4E0521306800F0B9FD306800F0B4
:10296000E4FD2968896A2A6821F00301916240F038
:1029700040048DF80040FFF751FC002818BFF8BD57
:10298000FFF769FC2868806A296840F003008862C4
:102990000121306800F09BFD2146306800F097FD72
:1029A0002868806A296820F003008862FFF736FCF7
:1029B000002808BFF8BD00BF00BFFFF72FFC0028AC
:1029C000F9D1F8BD70B505460024FFF727FC40B1EA
:1029D000AC4201D9002070BD641CFFF71FFC002829
:1029E000F6D1012070BD70B57A4C06462068806A29
:1029F000216840F003008862754D0921286800F0C5
:102A000066FD286800F091FD2168896A226821F03E
:102A1000030191623070012070BD38B5FFF7FEFBF5
:102A2000002836D1FFF717FC6A4C2068806A40F016
:102A3000030120688162664D2F21286800F047FD60
:102A40002068806A216820F003008862FFF7E6FBB7
:102A500028B100BF00BFFFF7E1FB0028F9D12068D3
:102A6000806A216840F0030088620921286800F02C
:102A70002EFD286800F059FD2168896A226821F03E
:102A8000030191628DF8000010F0020F1CBF0120BD
:102A900038BD022038BD4E4810B50421006800F052
:102AA00016FD012010BD70B5FFF7B8FB00281CBF54
:102AB000022070BD474C2068806A216840F0030006
:102AC0008862434D0521286800F001FD286800F068
:102AD0002CFD06462068806A216820F00300886289
:102AE0002068806A216840F003008862FFF7B3FB2A
:102AF0000121286800F0EBFC26F04001286800F076
:102B0000E6FC2068806A216820F0030088620120CA
:102B100070BD70B50546FFF781FB00281CBF022081
:102B200070BDFFF798FB2B4C2068806A216840F04D
:102B30000300886226485221006800F0C8FC28463D
:102B4000FFF7C8FA2068806A216820F003008862D5
:102B5000FFF764FB28B100BF00BFFFF75FFB002851
:102B6000F9D1012070BD10B50446FFF757FB0028CE
:102B70001CBF022010BDFFF76EFB1548D82100686E
:102B800000F0A5FC2046FFF7A5FA12480168896A03
:102B9000006821F003018162FFF740FB28B100BF0C
:102BA00000BFFFF73BFB0028F9D1012010BD08480A
:102BB00010B5B921006800F08AFC012010BD04485E
:102BC00010B5AB21006800F082FC012010BD0000B0
:102BD0009C9B1100809B1100012101FA00F04149EA
:102BE0000A6810430860404909680860704701217D
:102BF00001FA00F03B490A6822EA000008603A49FD
:102C00000968086070473749096821FA00F000F048
:102C100001007047334A116821FA00F313F0010FE5
:102C20004FF0010303FA00F02F4B05D021EA00001A
:102C300010601968086070470843106019680860E0
:102C4000704729490968096821FA00F000F001007D
:102C5000704725490A6852680123096803FA00F0A1
:102C600010434860704720490A6852680123096888
:102C700003FA00F022EA0000486070471A490A6827
:102C8000126A0123096803FA00F0104308627047D2
:102C900015490A68126A0123096803FA00F022EA5A
:102CA0000000086270471049086840680A6840F0F0
:102CB00001005060086840680A6840F002005060F7
:102CC000084A106840F0010010600B681860106836
:102CD00040F002001060096808600449002009689B
:102CE000C860704774050020789B1100809B11001C
:102CF00070477047B24810B502683F21D160026842
:102D0000002191640068C0F8B41003210A2000F08B
:102D1000A8F9BDE810400A2000F0C7B9A84A136816
:102D20001860136859604843116888607047A44A66
:102D30001368186013685960484310F0010F18BFFA
:102D4000401C1168886070479D490968C1F8B4004B
:102D500070479B4918B10968012088647047096869
:102D600000208864704796480168C968006841F08F
:102D70000201C1607047DFF848C210B4DCF80040BF
:102D80002062DCF800004162DCF800008262DCF8BE
:102D90000000C362DCF8001001200863DCF80000CA
:102DA000406B10F0010F09D000BF00BF00BF00BF93
:102DB000DCF80000406B10F0010FF5D110F00200BC
:102DC00018BF4FF0FF3010BC70477D480168C968DC
:102DD000006821F00201C160704779480168C96844
:102DE000006841F00101C1607047754BD3F800C025
:102DF000CCF82000186841621868826219680120C6
:102E000008641868406C10F0010F08D000BF00BFC4
:102E100000BF00BF1868406C10F0010FF6D110F031
:102E2000060018BF4FF0FF30704765480168C96859
:102E3000006821F00101C160704761480168C968FC
:102E4000006841F00401C1607047027C017B02F020
:102E50003F0241EA02415A4A1368996513680168C2
:102E6000596213684168996213688168D96213686E
:102E7000012119651168496D11F0010F08D000BFDB
:102E800000BF00BF00BF1168496D11F0010FF6D1FE
:102E90001368DB6D83821368DB6D1B0CC3821368C0
:102EA0001B6E038313681B6E1B0C438313685B6EDE
:102EB00083831268526EC2F30E42C28311F0020085
:102EC00018BF4FF0FF3070473D480168C96800687F
:102ED00021F00401C160704701684FEA314238496E
:102EE0000B68C3F89C200A684068C2F8A000086814
:102EF000C068096840F02000C8607047304A136815
:102F000018621068416211680120C1F890001068D1
:102F1000D0F8980010F0010F09D000BF00BF00BF2B
:102F200000BF1068D0F8980010F0010FF5D110F034
:102F3000060018BF4FF0FF30704721480168C9688C
:102F4000006821F02001C16070471D480168C96810
:102F5000006841F01001C1607047A3F1050C184BE7
:102F600010B41C68C4F888C0D3F800C0CCF82000A6
:102F7000186842621868816219680120C1F88000EF
:102F80001868D0F8840010F0010F09D000BF00BF0E
:102F900000BF00BF1868D0F8840010F0010FF5D111
:102FA00010F0060018BF4FF0FF3010BC7047044807
:102FB0000168C968006821F01001C1607047000015
:102FC0008C9B1100234810B502680121116602682C
:102FD00010215167026841F2060151660268002122
:102FE000916602680A21C2F8881002689021C2F82E
:102FF00084100168D1F88410026841F00101C2F820
:10300000841002684FF48171116600680166032024
:1030100000F04BF80021032000F023F80E490220B5
:1030200009688862002010BD10B5032000F048F840
:1030300008484FF480710268116602680021116629
:10304000006810218167002010BD0449002008702D
:10305000704700007C9B1100889B110078050020C0
:10306000704700F00303DA004FF0FF0C0CFA02F295
:103070004FF0050C0CEBC303994000F00C03002843
:1030800008DA3048006818444369114093431943F3
:10309000416170472C4800681844D0F80033114053
:1030A00093431943C0F80013704700F01F01012239
:1030B00002FA01F1244A4009126842F820107047D0
:1030C00000F01F01012202FA01F11F4A40091268B3
:1030D00002EB8000C0F88010704700F01F01012251
:1030E00002FA01F1184A4009126802EB8000C0F8A8
:1030F00080117047144909680860704712490968CF
:10310000C1F88000704710480068006870470E4999
:103110000968C1F8800170470A48006880687047F4
:1031200008490A6892680968886010467047054A2D
:103130001268926800F1100352F8230042F823103D
:10314000704700006C9B1100689B1100704770472E
:1031500070477047704770470020704700207047E5
:1031600000207047704770471B4A1168106008467E
:103170007047704718484068704710B500F0ACF8C9
:10318000164804210268C2F8881002684FF6FF71E1
:10319000C2F88C1072B600684FF40071016662B616
:1031A00010BD72B60D484FF400310268116662B668
:1031B0000068D0F8040268B14FF6FF71081A06499A
:1031C000074A8860A0F50840B93890423CBF4FF0EC
:1031D0000110C86000F085B87C050020909B1100AC
:1031E000372B1A001A4801684969026841F40071D6
:1031F000516101680969026821F0060111610168E5
:103200000969006841F010010161704710480168C8
:103210000969026821F00601116101680969026803
:1032200041F00401116101680969006841F0100171
:10323000016170470649096888607047BFF34F8F86
:10324000034904480968C860BFF34F8FFEE70000D8
:103250006C9B11000400FA05022824BF002070476F
:10326000874B53F8202043F820101046704770B564
:10327000844C2068006F824D10F0010F06D0216849
:103280000120C8662868002818BF80472068006FA2
:1032900010F0020F08BF70BD02202168C866686880
:1032A000002808BF70BDBDE870400047754810B5E4
:1032B000026802211165036801221A66036803226D
:1032C000DA66006841650920FFF7EFFE0221BDE8DC
:1032D00010400920FFF7C5BE6A4902200968086549
:1032E00070476849022009684865704700207047A8
:1032F00064480168096F11F4007F04D000684FF43E
:1033000040710166704700684FF480710166704734
:1033100010B55C4C2068C06F10F0020F4FF0010038
:1033200018BF0320226850670520B1FBF0F0226827
:103330004FF405710009C2F8801015F059FE524A89
:10334000524B15F0A5FE15F00FFE2168C1F8840060
:103350002068006F10F4007F04D021684FF44070A3
:10336000086610BD21684FF48070086610BD45489E
:103370000168096F11F4807F04D000684FF4407138
:103380000166704700684FF40071016670473D4B5D
:1033900030B41A68D26F12F0010F1DBF0322D3F8A8
:1033A00000C0CCF874204FF0020C04BF1A68C2F8B9
:1033B00074C04FF0020C00EB4005C5EBC0104FF499
:1033C0009674C1EBC0004C4300EB8000304904EB25
:1033D0004010A1FB0010C0080521B0FBF1F0002255
:1033E000B0F5803F05D3511C4008CAB2B0F5803F0C
:1033F000F9D242EA0C211A6841F01001C2F8881093
:103400001968C1F88C001868006F10F4807F05D02F
:1034100019684FF44070086630BC704719684FF463
:103420000070086630BC704716480168096F11F4D7
:10343000003F04D000684FF44031016670470068D7
:103440004FF48031016670470E480168096F11F42E
:10345000803F04D000684FF4403101667047006837
:103460004FF400310166704706480068006FC0F3F2
:103470000020704703480068006FC0F34020704789
:1034800090050020909B11007B14AE47E17A843FA9
:10349000CDCCCCCC30B40025DDE9024C056001F088
:1034A0000F0141EA8C1101600168D2B241EA0221A8
:1034B000016023F47F41016110214160416804F003
:1034C000040211436FF3CF11416030BC7047C268F2
:1034D00012F0010F18BF8160C16811F0100FFBD10D
:1034E000C16811F0040F08BF70478168C16811F00E
:1034F000040FFAD170470023002A0BDD11F803C036
:10350000C0F808C0D0F80CC01CF0100FFAD15B1C3A
:103510009342F3DBC16811F0040F08BF7047816864
:10352000C16811F0040FFAD17047FF22C16811F091
:10353000100FFBD18260C16811F0100FFBD1C16880
:1035400011F0040FFBD08068C0B270470023002A3E
:10355000D8BF704710B4FF24D0F80CC01CF0100F77
:10356000FAD18460D0F80CC01CF0100FFAD1D0F85A
:103570000CC01CF0040FFAD0D0F808C001F803C04A
:103580005B1C9A42E7DC10BC7047416841F00201C5
:103590006FF3CF1141607047416821F4C17121F48C
:1035A0007E414160704700007047024800684068F3
:1035B00070477047809B1100264900200A68906080
:1035C0000968086024494860704710B5214C21689B
:1035D00048602168002088600221401EFFF741FDFD
:1035E00021680720086010BD1A490020096808609A
:1035F0007047194908707047174800787047164996
:103600000120087070471448806870472DE9F04128
:10361000114C002705466780A0684FF47A71B0FB13
:10362000F1F00C4E401E316848603068876002211E
:10363000C81EFFF716FD3168072008606188A9429F
:10364000FCD330680760BDE8F08104494843024973
:1036500088607047649B11009805002040420F006D
:10366000704770B52C4C05464FF40D5021688866A4
:1036700021680320C86621682848486621684CF202
:103680007100086621682648C1F88000216842F26E
:103690004630886602210020FFF7E3FC0020FFF798
:1036A00004FD002D08BF70BD2068806E42F24131DC
:1036B00008432168886670BD174810B5026801216B
:1036C000916700684FF40D5181660020FFF7F8FC08
:1036D000BDE810400020FFF700BD0F490120096838
:1036E000486770470C4901200968886770470A4994
:1036F0004CF27100096808667047074881B04CF2C7
:103700007101026811660168096F0268D16600687C
:10371000006F009001B07047749B11000738393773
:10372000009C1C9110B500210A20FEF71DFC8B495E
:10373000887110BD024670200121FEF728BB0246A9
:1037400070200021FEF723BB2DE9F041002425461F
:1037500072201421FEF7CEFA064610F0010F18BFB2
:10376000012416F0020F18BF44F0020416F0040FF3
:1037700018BF44F0040416F0080F0DD0784844F048
:1037800008040168D1F82C13006841F00401C0F866
:103790002C130020FCF714FF16F0100F18BF44F094
:1037A000100416F0200F6D4F06D044F020040021C5
:1037B0000A20FEF7D9FBB87124B1702001212246FE
:1037C000FEF7E5FA300A10F0010F18BF1025040AC1
:1037D00014F0010F4FF0010607D045F020053E70B0
:1037E00000210A20FEF7C0FBB871200A10F0010F7B
:1037F0001CBF45F040057E7025B1702000212A468F
:10380000FEF7C5FAB8799C281CBF0020B870BDE847
:10381000F08199E710B500210A20FEF7A5FBC0B2A0
:1038200000224E499C2804BFCA700A7008D0C8788C
:10383000401CC0B2C870032882BFCA70012010BDEE
:10384000002010BD10B5454C6079401CC0B26071BD
:10385000142818D900210A20FEF786FBA279C0B2ED
:103860000021824204BF217161710CD06079401E39
:1038700060712079401CC0B22071032803D92171E6
:103880006171012010BD002010BD10B5C9200021BC
:10389000FEF730FA002010BD70B5742400213322E9
:1038A0002046FEF774FA01210D462A462046FEF70F
:1038B0006EFA02212A462046FEF769FA03212A46BB
:1038C0002046FEF764FA702001217722FEF75FFAA6
:1038D0000C20FFF7EAFB00210C20FFF7C2FBC820F9
:1038E00000211422FEF753FA1C4C00200146A07060
:1038F0000A20FEF739FBA07170BD70B5FFF7A2FF7B
:1039000020B10020FFF773F9FEF75FFB134C002591
:103910002078B0B100210A20FEF726FBC0B29C2817
:1039200004BFE57025700CD0E078401CC0B2E07098
:10393000032806D9E57025700020FFF758F9FEF737
:1039400044FB6078002808BF70BD65700020FFF759
:103950004EF9BDE87040FEF738BB0000A40500201A
:10396000849B110070B5FD4C00254FF490612570CB
:103970006570FB4814F039FD4FF49061F94814F07C
:1039800034FD4FF49061F84814F02FFD6560A57088
:103990008021F64814F029FDBDE870408021F448EC
:1039A00014F023BDED488078002818BF012070472F
:1039B000EA484078002818BF0120704770B50546D6
:1039C000EC48ED490078097800FB01F4FFF7A6F90F
:1039D000E54A2B46A2F510610846FFF7CCF96200D4
:1039E0002946E14814F060FCDC490120487070BDB4
:1039F0002DE9F0411D4616460F468046069C00F014
:103A00005FFE022802D108F09AFB30B100F058FEA8
:103A1000052803D105F0A7FE00B90224FFF768F9D5
:103A200021462846FFF783F93A4631464046FFF7DC
:103A3000DCF9BDE8F041FFF75CB9C8484068704761
:103A4000CE4A10B5127801469200C84814F02CFCFA
:103A5000C2490120887010BD2DE9F04FDFF8FCA2AB
:103A6000002689B09AF801809AF80270B346FDF7F3
:103A70007AFDC3480168496C026841F400615164F1
:103A800000BF0168496C006821F400614164BD49D0
:103A90000220096808660020FDF7E9F8FDF7A3FB9E
:103AA00005F035F901280BD06846FDF7A4FE002883
:103AB000F6D0684605F06CFC029870B11FB10CE0BE
:103AC0004FF0010B69E00146AC4800788200A7483E
:103AD00014F0EAFB01208AF802000198002854D073
:103AE000B8F1000F51D104469AF80000A8BBDAF8EB
:103AF000045095B39F48007807909F4890F8009035
:103B000000F0DEFD022802D108F019FB30B100F010
:103B1000D7FD052804D105F026FE08B94FF00209AB
:103B2000FFF7E6F849460798FFF701F921462A46CC
:103B30000846FFF75AF9FFF7DCF8DFF84C9299F8DE
:103B40000000022804BF284605F055FB99F8000044
:103B5000092804BF204605F04EFB254685488649C6
:103B60000078097800FB01F4FFF7D8F87E4A2B466D
:103B7000A2F510610846FFF7FEF8620029467A4870
:103B800014F092FB01208AF80100FDF76EFE761C0E
:103B9000042E85D3BBF1000F03D08AF801808AF888
:103BA00002700120FDF709F87648022100680166DD
:103BB00009B05846BDE8F08F6848002101704BE716
:103BC00038B50F2100F048FE644C012806D10020D2
:103BD0002070FFF741FF009000F0C3FE60780028DE
:103BE0001BBFA07800280020012038BD0F2138B568
:103BF00000F032FE594C012806D100202070FFF75A
:103C00002BFF009000F0ADFE607800281BBFA0786D
:103C100000280020012038BD0021504841708170EB
:103C200070474F4870474F48704770B505464FF48E
:103C300090614B4814F0D9FB4FF490614A4814F05E
:103C4000D4FB464C29464648227800F0E2FA227816
:103C50002946BDE87040444800F0DBBA002818BF90
:103C600001203E49487070472DE9F047DFF8EC909D
:103C700082B05FEA000858D000254FF4107A2C4635
:103C800000F01EFD052808BF012505D008F057FAF1
:103C900000280CBF3D4C3E4C3E483F4F00687969C0
:103CA000806BFF3100F5E03021F0FF01503005FB63
:103CB000010600F005FD022807D108F040FA20B9FE
:103CC0007869FF3020F0FF00064400F0F9FC02287C
:103CD00002D108F034FA68B300F0F2FC052802D1F2
:103CE00005F041FD30B30025771C304601226946BE
:103CF000FEF777FC7E1C012201A93846FEF771FC15
:103D00000198002CC1B2009861F31F2000B2414617
:103D100028F8150018BF24F815006D1C5545E3D38D
:103D200001221E4800F075FA1C48C9F8040002B0D0
:103D3000BDE8F087402300208446614628F810C083
:103D4000002C18BF24F81010401C9842F5D3012213
:103D50004146134800F05DFA1148E6E7AC05002043
:103D600040160020C01A0020401F0020C02C002058
:103D7000402D0020B6050020B7050020BD0500201D
:103D8000849B1100809B110029060020320800202E
:103D900028560020A0060020A4060020C0230020F2
:103DA0004028002010B50122FD49FE4800F031FAFC
:103DB000FD49FC48486010BD10B5FB4C002804BF0D
:103DC000606010BD01220146F64800F022FAF54875
:103DD000606010BDF5487047002818BF0120F24907
:103DE00088707047F049002200284A708A7018BF16
:103DF0000120087030E610B54FF44C301422EC4925
:103E0000FEF7EFFBEA4810BD10B54FF44C3014221A
:103E1000E749FEF7E6FBE648006810BD10B54FF431
:103E20004C301422E249FEF7DCFBE14810BD026889
:103E3000B2F1FF3F15D0052904BFC07A704728DCD6
:103E4000012904BF00797047022904BF007A704736
:103E5000032904BF407A7047042904BF807A704761
:103E600027E0052913D007DC012922D002291CBF35
:103E7000032904290BD01CE0142912BF15292D2079
:103E80007047162904BF28207047172911D1002038
:103E90007047142904BF007B7047152904BF407B7D
:103EA0007047162904BF807B7047172904BFC07B69
:103EB0007047FF20704770B5C0B000244FF4807188
:103EC000684614F092FAFF224FF44C36511C6846B3
:103ED00014F061FAFF21254661F307052D222146E2
:103EE00062F3070162F30F2128224BF6BB3062F325
:103EF000174164F31F61CDE90005CDE90241049447
:103F00003046FEF76FF969463046FEF775FA40B065
:103F100070BD2DE9F04FC1B00446DDE94A87006865
:103F2000994692468B46B0F1FF3F08BFFFF7C3FFAB
:103F3000D4E901106AF3070069F30F20256868F3DC
:103F40001740D4E903646BF3070167F31F608B46E6
:103F50000746FF22511C684614F01DFA0297CDE96E
:103F60000364CDE9005B4FF44C342046FEF7B2F910
:103F700069462046FEF740FA012818BF002041B0EC
:103F8000BDE8F08F2DE9F04F174688468146C1B055
:103F900000244FF44C3014228549FEF722FB844B59
:103FA0001D68B5F1FF3F02BF204641B0BDE8F08F6C
:103FB000FF22D3E902A4511C6846D3F810B05E6812
:103FC00014F0E9F969F3070468F30F2467F3174461
:103FD000012060F31F64CDE902A4CDE900564FF43F
:103FE0004C34CDF810B02046FEF774F969462046EF
:103FF000FEF702FA41B0BDE8F08F2DE9F04F6D4FAA
:104000000025C1B07E42A8464FF44C3014226849C6
:10401000FEF7E7FA664C172120462368FFF707FFF3
:10402000844614212046FFF702FF40B2B3F1FF3F60
:1040300004D0BCF1000F09D12D2807D0FFF73BFFBA
:104040004FF44C3014225A49FEF7CBFA1421204683
:10405000FFF7EDFE40B2039015212046FFF7E7FE83
:1040600040B2029016212046FFF7E1FE40B20190D7
:1040700016212046FFF7DBFE404240B20090FDF7DC
:1040800041F810F0020F7BD04B484D4A4FF0000929
:1040900090F800C0494800780028C8BFACF1010A78
:1040A0001EDD0021BAF1000F16DD01F1010B01FB4D
:1040B00000930BFB009B32F8133032F81BB0A3EBDC
:1040C0000B031BB2002BB8BF5B421BB24345C8BFFA
:1040D0009846491C5145E8DB09F101098145E0DBBF
:1040E00002994145B8BF45F002054FF00009CA46A4
:1040F000BCF1000FC8BFA0F1010B1BDD0021BBF11B
:10410000000F13DD0AFB001332F813E002EB430348
:104110005B88AEEB03031BB2002BB8BF5B421BB244
:104120004B45C8BF9946491C5945EBDB0AF1010ACA
:10413000E245E3DB03994945B8BF45F004054FF07C
:10414000000ABCF1000F13DD002300280CDD0AFB80
:10415000003132F91110B942C8BF0F46B142B8BFA1
:104160000E465B1C8342F2DB0AF1010AE245EBDBFF
:104170000198B84202DB0098B04201DD45F0080525
:104180007042C6B2206809F0FF0908F0FF08FFB2CC
:10419000B0F1FF3F08BFFFF78EFED4E9011011E038
:1041A00028560020C0230020AC050020C02C002091
:1041B000C02D0020F1D8FFFFB7050020B605002074
:1041C0004016002069F3070068F30F20D4F800A020
:1041D00067F31740D4E903B465F3070166F31F6082
:1041E0000D460646FF22511C684614F0D4F8CDF85F
:1041F00000A0CDE903B4CDE901564FF44C3420467C
:10420000FEF768F869462046FEF7F6F841B0BDE8CB
:10421000F08F2DE9F04107460E480E4604780E480F
:10422000057800F04DFA022802D107F088FF78B136
:1042300000F046FA052802D105F095FA40B104FBDA
:1042400005F0420031463846BDE8F04114F02CB884
:104250006000F6E7B6050020B70500202DE9FF4F06
:1042600085B080464FF0000A32201446D146CDF882
:104270000CA00490FD4857464FF0FF3B0678FC48E1
:104280000078CDF804A0029000F01AFA05280CBFBF
:104290001E251425FFF7C5FC009002984FF0000C76
:1042A00000287DDD0021002E4DDD0CFB061080B2C4
:1042B00038F91020AA4209DD0AF101030FFA83FA46
:1042C000B2F5C87F02DD089B02221A8034F9102063
:1042D000AA420DDD09F101030FFA83F95A45C4BF63
:1042E000049B9A4204DD8BB293461FFA8CF701932C
:1042F000009B38F910E033F910309A1A12B2BEF16F
:10430000000F18DA002AB8BF5242002BB8BF5B4238
:10431000934210DA1EF11E0F02DA089B02221A8065
:10432000069A38F8103022F8103038F8102052422F
:1043300028F8102003E0069A002322F81030481CC9
:1043400001B2B142B1DB0CF101000FFA80FC02981E
:104350006045A7DCBAF1000F49DDB9F1000F00F0AC
:10436000DF80A6F1010A4FF000091FFA8AF8BBF1BD
:10437000000F40F3DC80019807FB0600029034F93F
:10438000103003EBD370B3F1FF3F4FEA6000B8BFCA
:10439000404202B207FB06F01FFA80FC039800E0DF
:1043A00029E0012840F3C380019800B28646012825
:1043B00041DB0CEB000189B2002B20DD34F911B098
:1043C00004EB410131F9021CBBEB010B06D50029BE
:1043D000B4BFC1F1000B8B46934504DB0029B8BF85
:1043E0004942A94223DA401E1FFA80F923E018BF90
:1043F000B9F1000FB5D109B00020BDE8F08F16DA91
:1044000034F911B004EB410131F9021CABEB010BA3
:10441000BBF1000F06DD0029B4BFC1F1000B8B46D4
:104420009345E0DB0029B8BF4942A942DBDB401ECF
:1044300000B20128BDDAD64537DA0CEB0E0080B2A7
:10444000002B17DD34F9101004EB4000B0F9020026
:10445000091A05D50028B4BF41420146914204DB48
:104460000028B8BF4042A84219DA0EF101001FFA35
:1044700080F81AE013DA34F9101004EB4000B0F9B8
:104480000200091A002905DD0028B4BF4142014697
:104490009142EADB0028B8BF4042A842E5DB0EF1BA
:1044A00001000FFA80FED645C7DB0298009B81B25F
:1044B00007FB069082B207FB068033F9123034F80E
:1044C00012201FFA80FC9A1A009815B2009A30F94F
:1044D000110034F8111032F91C2034F81CC0411AB4
:1044E00009B2A2EB0C0C0FFA8CFC4C1B48BF6C1AE7
:1044F000B1EB0C0548BFACEB010561190CB2C11A58
:1045000048BF191A831A48BF131AC81805B207F012
:10451000B8FE18B10BF00CFB012806D0AC4206DA4D
:1045200009B04FF0FF30BDE8F08FAC42F8DB09B0C6
:104530000120BDE8F08F2DE9F05FDFF838A180465B
:104540000026DAF80000374690F8241100291CBF35
:10455000B0F8300100286CD0FCF7C0FEDAF800108B
:1045600091F82411B0FBF1F201FB1200002860D198
:1045700001F034FC5FEA00095BD03F480078102866
:1045800004BF484604F037FE38484FF0000C44465C
:1045900090F800B03648634690F800E0BEF1000F96
:1045A00019DD34F9020B0125BBF1010F10DD34F9DF
:1045B000022B101A01B20029B8BF494208B2604567
:1045C00002DD84461E462F466D1C10465D45EEDB1F
:1045D0005B1C7345E5DBDAF80020B2F83001844556
:1045E00027DB06FB0B7008EB400338F8101033F89C
:1045F000023CC91A39F8103009EB400009B230F812
:10460000020C181A081A00B20028B4BF434203462D
:104610000029B8BF49428B420BDA0028B8BF40429C
:10462000B2F83211884204DA01F0E2FB0020BDE862
:10463000F09F0120BDE8F09F70B515460E46044678
:1046400007F07DFD002C18BF70BD042818BF052899
:1046500006D00848006890F82400A84288BF70BDC2
:104660003046BDE87040FFF7EBB90000B60500200A
:10467000B7050020E40600202906002070B5154685
:10468000044607F05CFDB4F1FF3F0AD0002C18BFD0
:1046900070BD002D08BF70BD2846BDE87040FFF713
:1046A0008DB9002D08BF70BD2846BDE87040FFF7EA
:1046B000BCBA10B506F022F906F0AEF9002010BD24
:1046C000AC4800787047AB480078022805D0052830
:1046D0001CBF0020704705F046B807F030BDA54963
:1046E0000870704710B50446072C28BF10BDDFE8DE
:1046F00004F013040810130C0800084600F042F9F7
:104700000AE0084607F010FD06E0084605F020F82C
:1047100002E0084607F0FAF99648047010BD964981
:1047200000200968B1F8641011F4807F08BF704759
:10473000FDF791BA904900200968B1F8641011F4AE
:10474000807F08BF7047FDF7A1BA8B490020096838
:10475000B1F8641011F4806F08BF7047FDF7BABA62
:104760008449487800281CBF401E4870704710B527
:1047700072B6FEF7A1FFBDE81040FEF75FBD10B5B1
:104780007E48FDF72FFD72B6FEF796FFBDE810409C
:10479000FEF754BD7748006970477648C068704797
:1047A00074494861704773484069704710B5FCF719
:1047B000C1FBFBF79FFEFCF74EFAFFF7F3FABDE8EB
:1047C0001040FDF78DB910B5FCF7B4FBFBF792FE76
:1047D000FCF7E9F8FCF73FFABDE81040FDF780B9B7
:1047E00030B5ADF2844D05464FF49061684613F044
:1047F000FCFD604C2846256105F09CFFE060F0B1AF
:104800000278A2704178E17083782371531C03F021
:10481000FE0363710023E37123724FF0120C84F8DE
:1048200006C004F10A0C8CF800308CF801300078D6
:1048300060721046FCF7D3FD0DF2844D30BD4E483A
:104840000068B0F8640010F4807F18BFFDF71EFA0E
:1048500000200DF2844D30BDF0B5ADF2CC4D0F46C9
:1048600004464FF49061684613F0BFFD414D204669
:104870002C6105F05FFFE860002851D00278AA7033
:1048800041780446E97080782871501C00F0FE00E1
:1048900068710020E87128721223AB7105F10A03D8
:1048A00018705870207868721046FCF798FD0DF566
:1048B0009061204605F05BFF608A6E6900281CBF8E
:1048C0007043060B002017F0040F18BF062017F0E6
:1048D000080F18BF40F00200616A0840DDF880143C
:1048E000CDF8C014DDF89C14CDF8C414DDF8901494
:1048F000CDF8C8140DF59861FCF72FFBDDF88C049A
:1049000020B13346EA78A97805F01CFA64213046D4
:1049100005F0CBFA287802280FD0052810D016E031
:1049200015480068B0F8640010F4807F18BFFDF7E8
:10493000ADF900200DF2CC4DF0BD07F000FC01E018
:1049400004F011FF022808BFDDF8940400D0684687
:10495000FFF78AF9002001F040FA0DF2CC4D01205A
:10496000F0BD10B5FCF7C6FB02490020C86001206D
:1049700010BD0000B4050020E406002000FE110078
:10498000F7487047F74948707047F64840787047D5
:10499000F54810B4F54A0168914218D14168B1F563
:1049A000887F14D80022D0F808C003461146B2EB25
:1049B0009C0F24BF10BC704753F82140491C22446F
:1049C000B1EB9C0FF8D3002A04BF10BC7047002045
:1049D00010BC70474FF4FC30FDF77CBC2DE9F04172
:1049E0000446E1480D46E14E0168B14213D14168E9
:1049F000B1F5887F0FD80023D0F808C001461A46C9
:104A0000B3EB9C0F08D251F82270521C3B44B2EB1E
:104A10009C0FF8D303B1002058B1B0E80E10A4E801
:104A20000E10B0E80E10A4E80E100FC884E80F00B6
:104A300016E0FF223021204613F0ADFC4FF48870C1
:104A4000C4E900603020A06000205021C4E90301C7
:104A50006061A061E061401EE062A062606220626D
:104A6000002D04BF4FF4FC30FDF734FC0120BDE8FD
:104A7000F081BC49012048707047BA490020087095
:104A8000704770B5ADF5107D0446FFF786FE05460C
:104A900014F0020F04BF0DF5107D70BD0426FFF762
:104AA00012FE002818BFB24C08D095F92C102246EF
:104AB000304605F081FE0DF5107D70BD6C46204638
:104AC000FCF7D7FEF1E770B50D4606461024FFF758
:104AD00064FE16F0020F18BF05242A46102C28BFCA
:104AE00070BD002A08BF70BD204490F928102046F0
:104AF000BDE8704005F060BE2DE9F04F87B08146FB
:104B0000122000244FF0200A27460090FFF7D8FD1E
:104B1000022802D107F013FB30B1FFF7D1FD0528C1
:104B200004D104F020FE08B902200090009800256E
:104B300000289CBF07B0BDE8F08F0026BAF1000F37
:104B40007CD98C4A681EA2FB00314908A1EB810187
:104B500008440590E81E0490A81F0390C01E029010
:104B6000C01E0190A2FB05104008A0EB8000A5F13B
:104B70000F0B00EB0508FFF7A3FD022803D107F098
:104B8000DEFA00283AD0FFF79BFD052803D104F098
:104B9000EAFD002832D0032D38BF142417D304981F
:104BA000032838BF152412D30398032838BF1624CE
:104BB0000DD30298032838BF242408D30198032872
:104BC00038BF252403D3BBF1030F38BF2624A742E7
:104BD0000AD06948C4F3031127460068C16104F094
:104BE0000F017F20FBF730FCC4F3031001281CBF2A
:104BF000C6F11F0000EB481018D127E0002D0CBFB4
:104C000014242424A74209D05B48210927460068C0
:104C1000C16104F00F017F20FBF716FC2009012879
:104C200014D00598C6F11F0101EB401019F8011BC3
:104C3000C0B2FBF709FC761C56459CD300986D1C4E
:104C40008542FFF47AAF07B0BDE8F08F06EB48105D
:104C5000ECE72DE9F84F834642484FF0000A0C4636
:104C6000B0F904804FF01209202750460091FCF75C
:104C7000B0FB0546CBF10706FFF722FD022802D163
:104C800007F05DFA30B1FFF71BFD052804D104F0F1
:104C90006AFD08B94FF00209BBF1000F1CD0002ECD
:104CA00057DB4FF0000CB9F1000F49D9012101FA8F
:104CB00006F3701E01FA00FB0021002F3CD935F8E5
:104CC000020B2278A0EB080000B25FEAD21E23D0CC
:104CD000002827DA2EBB1BE00023B9F1000F2FD9E3
:104CE0000021002F10D935F8022B2078A2EB080202
:104CF00012B2502AC8BF40F0800040F04000491C6A
:104D000004F8010BB942EED35B1C4B45E8D317E026
:104D100010F1280F05DB0AE0002803DD0EB9282872
:104D200005DD9A43002EC4BF4BEA0200C2B204F86C
:104D3000012B491CB942C2D30CF1010CCC45BBD3A9
:104D4000FCF7F8F80098FFF7D7FE002E08BF4FF0E9
:104D5000010A5046BDE8F88F02498880704700007C
:104D6000C02E0020CC05002000F81100544352460C
:104D700000310020ABAAAAAA849B110070B5FE4E98
:104D8000FE49F08009680320C8610425E9B27F204C
:104D9000FBF75AFB0024B179E0B2FBF755FB04F1B5
:104DA0002000B179C0B2FBF74FFB04F14000B179AC
:104DB000C0B2FBF749FB641C202CECDB6D1C072DFB
:104DC000E4DB70BD2DE9F04F89B00026FCF7B2F8A6
:104DD000EA49072009680865E948016841F02001AF
:104DE00001600020FFF7CAFFE3494FF400608880AC
:104DF0004FF41071E34813F0F8FA0020FBF737FF87
:104E0000FCF71AFA00252C460795FFF75CFC03F027
:104E10007EFF01281DD06846FCF7EDFCB8B10120EB
:104E2000FBF725FF684604F0B3FA6D1C012D0ED088
:104E30000025D4492046FFF70CFF072C1ED0002088
:104E4000FBF715FFFCF711FDFCF7F6F9641C002ECB
:104E5000DDD0FFF738FCC84ACB48CA4BD0600020F1
:104E6000D16813F800C0401C01F801CBD160B0F547
:104E7000107FF5D3079800283CD135E01220089028
:104E8000BD4800274FF0200BB0F904603846FCF70E
:104E9000A0FA0546BA460024BBF1000F18D93046E7
:104EA00014F08FF8B94ABA4B14F0F2F889468046EC
:104EB00035F9022B901B48BFB01A14F082F8424615
:104EC0004B4614F0E3F938BF7F1C641C5C45EFD3FC
:104ED00008980AF1010A8245DDD3002F4FF0010640
:104EE0001CBF01200790B4E7002E1EBF002009B0B0
:104EF000BDE8F08F012009B0BDE8F08FF0B587B0B4
:104F000000260120FBF759FE9D48016841F0200171
:104F100001600020FFF732FF97494FF4006088805E
:104F20009C490020C1F88000C1F88400C1F88800C5
:104F3000C1F88C00C1F89000C1F89400C1F8980045
:104F4000C1F89C00C1F8A000C1F8A400C1F8A800F5
:104F5000C1F8AC00C1F8B000C1F8B400C1F8B800A5
:104F6000C1F8BC00FBF783FEFCF766F900252C4670
:104F70002F4603F0CCFE012837D06846FCF73BFCF7
:104F8000002830D00120FBF772FE6D1C012D25D0CA
:104F9000002581492046FFF75CFE072C06D0002043
:104FA000FBF765FEFCF748F9641C1CE00024202593
:104FB0002046FCF70EFA002130F9022BA2F5E76239
:104FC000B2F5C87F88BF641C491CB1EB450FF3D311
:104FD000002C4FF0010618BF012706E00020FBF768
:104FE00046FEFCF729F9002EC3D0FCF7FCF827B9E0
:104FF000002E1EBF002007B0F0BD012007B0F0BD9D
:105000002DE9F04F82460021ADF5137D6348909164
:105010000C4600780F460D46022808BF022703D031
:10502000052804BF02240427DFF85091DFF870B18F
:1050300000F099B9204605F07DFB002800F0928130
:10504000008900EA0A0626F0CC0030F47C4000F02B
:105050008981DFF85081D8F800004069D8F8001045
:1050600040F400704861D8F800000069D8F80010DA
:1050700020F006000861D8F800000069D8F8001098
:1050800040F0100008613CB1012C35D0022C71D0E9
:10509000032C55D000F0FCB802210846FFF722FB94
:1050A0000020FBF78AFD05F0ACF90F212046FFF741
:1050B000D3FB002800F05681D9F80000406CD9F8E5
:1050C000001040F40060486400BF00BF00BFD9F882
:1050D0000000406CD9F8001020F400604864FBF731
:1050E00000FD05F074F9012007F0E2F80020FBF75D
:1050F000BEFDFCF7BAFBCBE000210220FFF7F2FA7D
:105100000020FBF75AFD0F212046FFF7A5FB0028E2
:1051100000F02881D9F80000406CD9F8001040F464
:105120000060486400BF00BF00BFD9F80000406CB9
:10513000D9F8001020F400604864FBF7D2FCA7E027
:1051400000210520FFF7CEFAFBF7F4FED8F80000A7
:105150000069D8F8001020F006000861D8F80000B7
:105160000069D8F8001040F004000861D8F8000089
:10517000006919E03FE00000CC050020849B11008D
:105180006405002000310020C02E00209A999999D2
:105190009999B93FC03200204033002021060020F9
:1051A000889B11006C9B1100D8F8001040F0100093
:1051B00008610AF0BDFE0F210220FFF74DFB002819
:1051C0007ED0DBF8001007208860DBF80010042098
:1051D000486002212020FCF702F90020FBF747FD80
:1051E000FCF701F8DBF800000068DBF8001040F085
:1051F000010008604CE002210520FFF773FAFBF77D
:1052000099FED8F800000069D8F8001020F00600D8
:105210000861D8F800000069D8F8001040F00400D8
:105220000861D8F800000069D8F8001040F01000BC
:1052300008610AF07DFE05F0CAF80F210320FFF790
:105240000BFB00283CD0DBF800107F208860DBF8E7
:10525000001002204860D9F80000406CD9F8001016
:1052600040F400604864012006F070FED9F80000A8
:10527000406CD9F8001020F400604864FBF7B3FFDD
:10528000DBF800000068DBF8001040F00100086067
:105290009098002862D116F0010F23D00120FBF76F
:1052A0008CFCFFF710FA88B1FCF75DF9FF210F20A5
:1052B000FFF788FD012121EA00000543002000E0FE
:1052C00050E0FBF7D4FC909890BB0BE0FCF74BF957
:1052D000FF210F20FFF712FE012121EA000045EA1D
:1052E0004005EBE716F0060F22D0FFF7ECF9022895
:1052F0001ED1FEF737FB0020FEF774FD0120FBF7FF
:105300005CFCFEF78EFC0646FFF747FA05233200E9
:1053100004D090F92D10184605F04EFAFEF781FCE6
:10532000FEF74AFDFEF77DFC4FF4906113F03BF869
:10533000FFF733FA804604209190FFF7C4F9002864
:1053400018BFFE4E1DD098F92C103246919805F0EA
:1053500033FAFB4900200870FBF745FFFFF7B0F96F
:10536000FFF7FFFA641CBC4203D2909800283FF478
:1053700061AEF449002008700DF5137D2846BDE8A4
:10538000F08F6E463046FCF774FADCE770B5ED48F6
:10539000CCB04578FFF794F901287AD1EA48006843
:1053A000B0F93610B0F9340004F0F2FD15F0020F38
:1053B00071D0002140A8FFF711FB4598401C459093
:1053C00040F27770FFF71CFEC0B2032810D000280F
:1053D00004BF45F25000449012D0012808BF4AF2A1
:1053E00050100CD0022808BF45F2A10007D007E0FA
:1053F0004AF2A11044904698401C469008E0449020
:1054000047980022401C47902121072006F0E5FA2A
:1054100040AC05F080F940B181694891C16949917A
:1054200041694A91C0684B9005E04FF0FF304B90C6
:105430004A9049904890C54840904FF488704190F8
:105440003020429000204390A3682246014652F843
:1054500020C0401C6144B0EB930FF8D34E42FF22B2
:10546000511C6846E66012F096FFA268F4E8040159
:105470008DE847000FCC04AE86E80F0094E80F00DB
:1054800008AE86E80F004FF4FC306946FCF7B4FF25
:105490000EE014E0FFE715F0010F09D040F22220E2
:1054A000FFF7AEFD20B900222121072006F095FA72
:1054B000FEF7B2FB2A464021072006F08EFA4CB0D8
:1054C000BDE8704003F01FBC70B50C46A04905460E
:1054D00003200968C86101217F20FAF7B5FF002188
:1054E0007520FAF7B1FF01217620FAF7ADFF6021B0
:1054F0000820FAF7A9FF00210920FAF7A5FF3021BB
:105500000A20FAF7A1FF00210B20FAF79DFF0621E0
:105510000E20FAF799FFE1B22620FAF795FFE1B2E3
:105520002720FAF791FFE1B22820FAF78DFFE1B2C8
:105530002920FAF789FFE1B22A20FAF785FFE1B2C4
:105540003020FAF781FFE1B23120FAF77DFFE1B2B6
:105550003220FAF779FFE1B23320FAF775FFE1B2B2
:105560003420FAF771FFE1B23620FAF76DFFE1B2AD
:105570003720FAF769FFE1B23820FAF765FFE1B2A8
:105580003920FAF761FFE1B23A20FAF75DFFE1B2A4
:105590004020FAF759FFE1B24120FAF755FFE1B296
:1055A0004220FAF751FFE1B24320FAF74DFFE1B292
:1055B0004420FAF749FFE1B24620FAF745FFE1B28D
:1055C0004720FAF741FFE1B24820FAF73DFFE1B288
:1055D0004920FAF739FFE1B24A20FAF735FFE1B284
:1055E0005020FAF731FFE1B25120FAF72DFFE1B276
:1055F0005220FAF729FFE1B25320FAF725FFE1B272
:105600005420FAF721FFE1B25620FAF71DFFE1B26C
:105610005720FAF719FFE1B25820FAF715FFE1B267
:105620005920FAF711FFE1B25A20FAF70DFFE1B263
:105630006020FAF709FFE1B26120FAF705FFE1B255
:105640006220FAF701FFE1B26320FAF7FDFEE1B252
:105650006420FAF7F9FEE1B26620FAF7F5FEE1B24E
:105660006720FAF7F1FEE1B26820FAF7EDFEE1B249
:105670006920FAF7E9FEE1B26A20FAF7E5FE0221B5
:105680007F20FAF7E1FE6A210220FAF7DDFE8E2183
:105690000420FAF7D9FEF1210720FAF7D5FE15B15B
:1056A000012D05D008E004210620FAF7CDFE03E025
:1056B00008210620FAF7C8FE03217F20FAF7C4FE6E
:1056C00021211020FAF7C0FE00211120FAF7BCFEBC
:1056D00000211220FAF7B8FE00211320FAF7B4FED9
:1056E00000211420FAF7B0FE00211520FAF7ACFED5
:1056F00001211620FAF7A8FE02211720FAF7A4FECE
:1057000000211820FAF7A0FE00211920FAF79CFECC
:1057100000211A20FAF798FE00211B20FAF794FEC8
:1057200001212020FAF790FE20212120FAF78CFE9B
:1057300000212220FAF788FE00210BE00031002032
:105740000B070020CC050020E406002054435246FD
:10575000849B11002320FAF777FE00212420FAF71A
:1057600073FE00212520FAF76FFE01212620FAF7AB
:105770006BFE00212720FAF767FE02212820FAF7A6
:1057800063FE00212920FAF75FFE00212A20FAF7A4
:105790005BFE00212B20FAF757FE01213020FAF79B
:1057A00053FE00213120FAF74FFE20213220FAF774
:1057B0004BFE00213320FAF747FE00213420FAF790
:1057C00043FE00213520FAF73FFE01213620FAF78B
:1057D0003BFE00213720FAF737FE00213820FAF788
:1057E00033FE02213920FAF72FFE00213A20FAF782
:1057F0002BFE00213B20FAF727FE01214020FAF77B
:1058000023FE00214120FAF71FFE00214220FAF773
:105810001BFE20214320FAF717FE00214420FAF74F
:1058200013FE00214520FAF70FFE01214620FAF76A
:105830000BFE00214720FAF707FE00214820FAF767
:1058400003FE00214920FAF7FFFD02214A20FAF762
:10585000FBFD00214B20FAF7F7FD01215020FAF75C
:10586000F3FD00215120FAF7EFFD00215220FAF755
:10587000EBFD00215320FAF7E7FD20215420FAF731
:10588000E3FDBDE8704000215520FAF7DDBD10B5FD
:105890000322FE49062828BF10BDDFE800F00327D9
:1058A000FEFDFCFB0868C26101217F20FAF7CCFDF8
:1058B000AF210820FAF7C8FD73210A20FAF7C4FDCA
:1058C0000A210E20FAF7C0FD02217F20FAF7BCFD65
:1058D00000210720FAF7B8FD1F210120FAF7B4FDD7
:1058E0001021BDE810400620FAF7AEBD0868C2617D
:1058F00003217F20FAF7A8FD00211120FAF7A4FD6B
:1059000000211220FAF7A0FD00211320FAF79CFDD8
:1059100000211420FAF798FD00211520FAF794FDD4
:1059200001211620FAF790FD06211720FAF78CFDC9
:1059300000211820FAF788FD00211920FAF784FDCC
:1059400000211A20FAF780FD00211B20FAF77CFDC8
:1059500001212020FAF778FD60212120FAF774FD5B
:1059600000212220FAF770FD00212320FAF76CFDB8
:1059700000212420FAF768FD00212520FAF764FDB4
:1059800001212620FAF760FD00212720FAF75CFDAF
:1059900006212820FAF758FD00212920FAF754FDA6
:1059A00000212A20FAF750FD00212B20FAF74CFDA8
:1059B00001213020FAF748FD00213120FAF744FD9B
:1059C00060213220FAF740FD00213320FAF73CFD38
:1059D00000213420FAF738FD00213520FAF734FD94
:1059E00001213620FAF730FD00213720FAF72CFD8F
:1059F00000213820FAF728FD06213920FAF724FD86
:105A000000213A20FAF720FD00213B20FAF71CFD87
:105A100001214020FAF718FD00214120FAF714FD7A
:105A200000214220FAF710FD60214320FAF70CFD17
:105A300000214420FAF708FD00214520FAF704FD73
:105A400001214620FAF700FD00214720FAF7FCFC6F
:105A500000214820FAF7F8FC00214920FAF7F4FC6D
:105A600006214A20FAF7F0FC00214B20FAF7ECFC63
:105A700001215020FAF7E8FC00215120FAF7E4FC5C
:105A800000215220FAF7E0FC00215320FAF7DCFC59
:105A9000602103E01AE014E00EE008E05420FAF779
:105AA000D3FC0021BDE810405520FAF7CDBCAA2157
:105AB000BDE81040002007E55521BDE8104000205A
:105AC00002E5AA21BDE810400120FDE45521BDE812
:105AD00010400120F8E410B5FEF7A3F80446FEF7E5
