:10000000011004002600000020370000FF0000005F
:10001000021625E49001B4F0A3F0220231327E05ED
:10002000900130E06F6007EFF0E490015BF0900129
:1000300030E070027E0290015BE004F0C39E50034A
:100040007F002290015BEEF07F012202265653BA18
:10005000FEE5B920E004E51D6005E5B930E1FBE40B
:10006000F5BF53B9FD53B9FEF51D22021DEABB01D0
:100070000689828A83E0225002E722BBFE02E32245
:1000800089828A83E49322BB010989828A83F8E00A
:1000900028F022500327F722BBFE05F8E328F322BD
:1000A0008A838982F8E4932822BB010689828A83A5
:1000B000F0225002F722BBFE01F322EF8DF0A4A83C
:1000C000F0CF8CF0A428CE8DF0A42EFE22C5F0F83F
:1000D000A3E028F0C5F0F8E582158270021583E0F0
:1000E00038F022BB0110E58229F582E5833AF583D9
:1000F000E0F5F0A3E0225009E92582F886F008E651
:1001000022BBFE0AE92582F8E2F5F008E222E58347
:100110002AF583E993F5F0A3E99322F8BB0111E5F1
:100120008229F582E5833AF583E8F0E5F0A3F02231
:100130005009E92582C8F608A6F022BBFE09E92588
:1001400082C8F2E5F008F222EF2BFFEE3AFEED391D
:10015000FDEC38FC22C3EF9BFFEE9AFEED99FDEC1F
:1001600098FC22E88FF0A4CC8BF0A42CFCE98EF054
:10017000A42CFC8AF0EDA42CFCEA8EF0A4CDA8F00F
:100180008BF0A42DCC3825F0FDE98FF0A42CCD35D3
:10019000F0FCEB8EF0A4FEA9F0EB8FF0A4CFC5F03D
:1001A0002ECD39FEE43CFCEAA42DCE35F0FDE43C36
:1001B000FC2275F008758200EF2FFFEE33FECD3381
:1001C000CDCC33CCC58233C5829BED9AEC99E582C8
:1001D00098400CF582EE9BFEED9AFDEC99FC0FD554
:1001E000F0D6E4CEFBE4CDFAE4CCF9A88222B80044
:1001F000C1B90059BA002DEC8BF084CFCECDFCE50F
:10020000F0CBF97818EF2FFFEE33FEED33FDEC3332
:10021000FCEB33FB10D703994004EB99FB0FD8E5B7
:10022000E4F9FA227818EF2FFFEE33FEED33FDEC00
:1002300033FCC933C910D7059BE99A4007EC9BFCF6
:10024000E99AF90FD8E0E4C9FAE4CCFB2275F01082
:10025000EF2FFFEE33FEED33FDCC33CCC833C810A7
:10026000D7079BEC9AE899400AED9BFDEC9AFCE8D5
:1002700099F80FD5F0DAE4CDFBE4CCFAE4C8F92222
:10028000EB9FF5F0EA9E42F0E99D42F0EC6480C8F5
:1002900064809845F022EB9FF5F0EA9E42F0E99DDC
:1002A00042F0E89C45F022E8600FECC313FCED132C
:1002B000FDEE13FEEF13FFD8F122E86010ECA2E789
:1002C00013FCED13FDEE13FEEF13FFD8F022E860F0
:1002D0000FEFC333FFEE33FEED33FDEC33FCD8F10B
:1002E00022BB010DE58229F582E5833AF5830203FD
:1002F0003F5007E92582F80204B4BBFE07E92582D6
:10030000F802034BE58229F582E5833AF58302047E
:10031000C0BB010789828A830203C55005E9F80240
:1003200004EDBBFE05E9F80203D122BB010DE58215
:1003300029F582E5833AF5830203C55007E9258252
:10034000F80204EDBBFE07E92582F80203D122E0A2
:10035000FCA3E0FDA3E0FEA3E0FF22E2FC08E2FD37
:1003600008E2FE08E2FF22E0F8A3E0F9A3E0FAA326
:10037000E0FB22E2FB08E2F908E2FA08E2CBF8220D
:10038000BB010789828A830203575005E9F80204FA
:10039000D0BBFE05E9F802036389828A830204DD8B
:1003A0007401FF3395E0FEFDFCA3A3A3E0CF2FF083
:1003B000E582158270021583E0CE3EF0E58215825B
:1003C00070021583E0CD3DF0E58215827002158341
:1003D000E0CC3CF022ECF0A3EDF0A3EEF0A3EFF0C4
:1003E00022ECF208EDF208EEF208EFF222A8828584
:1003F00083F0D083D0821203F41203F41203F412B8
:1004000003F4E473E493A3C583C5F0C583C8C58230
:10041000C8F0A3C583C5F0C583C8C582C822D083F0
:10042000D082E493F208740193F208740293F20804
:10043000740393F2740473A42582F582E5F0358386
:10044000F58322FAE6FB0808E6F925F0F618E6CA75
:100450003AF622E0FBA3E0FAA3E0F922EBF0A3EAEC
:10046000F0A3E9F022E493FB740193FA740293F988
:1004700022D083D082F8E4937012740193700DA39C
:10048000A393F8740193F5828883E47374029368EC
:1004900060EFA3A3A380DFEC8EF0A4CCC5F0CCCD9D
:1004A000F8EFA4CEC5F02DFDE43CFCE8A42EC8C5B1
:1004B000F03DFDE43CFCEFA4FFE5F028FEE43DFD4B
:1004C000E43CFC22E6FC08E6FD08E6FE08E6FF2226
:1004D000E493FC740193FD740293FE740393FF2272
:1004E000E6FB08E6F908E6FA08E6CBF822E493F81A
:1004F000740193F9740293FA740393FB22ECF608E7
:10050000EDF608EEF608EFF622E4900186F0900191
:1005100086E0FFC39401400302078DEF25E025E04C
:100520002499F582E43400F58312033F900186128A
:100530000C91120DE6120D1F9001871203C5900158
:100540008712033FEC3350037F0222900187120D84
:10055000F2D3120270400A9001871203DD0000FFFF
:10056000FF90018712033F900186E0FD120CE41218
:100570000C77ED120D76C002C001900186E0FF24D9
:10058000DEF9E43400120DFC7405F0EF120CE412F5
:100590000D85D001D0021231FEA215301401B350E6
:1005A00022900186E0120D767D0512211B900186B6
:1005B000E025E024DFF582E43400F583E544F0A390
:1005C000E545F030000302065C120D94120D56FF53
:1005D000ED120CE4F583E0FCA3E0FD12365190012E
:1005E0008BEEF0A3EFF0900186E0FF120E24E09076
:1005F000018DF0D394004013EF120CA1FE7401930F
:10060000120CEE4006E490018D804290018DE0D303
:1006100094034016120C9DC313FE74019313120C25
:10062000EE400790018D7403802390018DE0D394F8
:10063000064028120C9DFE7401937802CEC313CE9F
:1006400013D8F9120CEE401390018D7406F07F0E52
:10065000123406120DA3120C778017120DA3120D7F
:10066000564E700E90018D7408F0800690018D74C6
:1006700003F090018DE0FF900186E0FE120E24EF62
:10068000F0EE75F004A424A1F9740035F0FA7B01B2
:10069000900186E0120CE4120D56FFE4FCFD90017F
:1006A0008DE0900195F0122CA5120D94120C77900C
:1006B000018BEEF0A3EFF0ED25E024E4F582E434C5
:1006C00000F583E0FAA3E0C39FEA9E502B90018BD4
:1006D000E0FEA3E0FFED120C6EEF24E7FFEE34FF27
:1006E000FE120D37120C7790018CE024F4FF90017C
:1006F0008BE034FFFEED803F120D37120D56FF9058
:10070000018BE0FCA3E0FDD3EF9DEE9C402FED2498
:1007100019FFE43CFE900186E0FB120C6EEB120D1B
:1007200038F583ECF0A3EDF090018CE0240CFF9001
:10073000018BE03400FEEB120D5D120C77120D04FC
:10074000C002C001E0FF2428F9E43401120DFC745A
:1007500020F0EF120D5D120D85D001D0021231FE96
:10076000120D047D2012211B900186E0FD25E0245E
:1007700029F582E43401F583E538F0A3E539F0ED9D
:10078000120D5DF583E0F8A3E0FFED25E02432C80B
:10079000F208EFF2900186E004F00204FE7F0522E9
:1007A000900186EEF0A3EFF0E4A3F0900188E0FF63
:1007B000C3940140030209FEE4A3F012183D401166
:1007C000EF25E02432121816EF25E02434F8EC80EF
:1007D00023D3900164E09400900163E09400401AF8
:1007E0001217C52429F582E43401F583E0F81217C5
:1007F000DB2434C8F208EDF280221217C512182843
:10080000F583E0FCA3E0D39400EC94004017782833
:10081000E2FD08E2900074CDF0A3EDF09001897440
:1008200001F00209C774602F12184AE0602D1217F8
:10083000C52429F582E434011217D72435D31218C0
:100840000D400B1217D02434F8ECF208EDF29001B1
:1008500088E0246012184AE40209C11217D0121766
:10086000F0C083C082120357C0001217D012181DA7
:10087000E4FCFDD000120138D082D0831203C512EF
:1008800017C524ABF582E4340012185C1217A7E0F8
:10089000FE1217CD2432121816D39FEC9E4009E0A9
:1008A0001217A8ECF0A3EDF01217D01217E2FF9088
:1008B0000186E0FCA3E0FDC3EF9DEE9C506078282C
:1008C000E2FE08E2FFE4FCFDC004C005C006C0076C
:1008D000900074E0FEA3E0FFE49001921203C5D003
:1008E00007D006D005D00412333CE47B1EFAF9F899
:1008F000C31202864028A215301401B340201217FB
:10090000C5244FF582E434011217D7244DF582E453
:1009100034011217E9D39DEE9C50030209C7121748
:10092000D01217E2FFFBAA06E4F9F81217D012174B
:10093000F012033F1201DE90018CEEF0A3EFF030D5
:100940000056900188E0FD25E0243412181FED12B6
:1009500017A8E0FCA3E0FD12365190018AEEF0A347
:10096000EFF01217D0243412181F90018CE0FCA372
:10097000E0FD123651D390018BE09F90018AE09EFA
:100980005016900188E0FF1217A8E0F81217DB2438
:1009900034C8F208EDF2800F90018CE0F81217CD08
:1009A0002434C8F208EFF27828E2FF08E2900074DD
:1009B000CFF0A3EFF01217C5244DF582E4340112F5
:1009C0001790EF25E0244FF582E43401F583E4F03D
:1009D000A3F090018904F0900189E060281217C506
:1009E00024ABF582E43400121790EF25E01217F0E3
:1009F0001203DD000000001217C51218141217A709
:100A0000ECF0A3EDF0900188E004F002079B22E4F3
:100A1000900192F0EF7003020B3112003EE490015E
:100A200090F09001931203DD000000001234AF90AB
:100A30000190E0246BF582E43400122C3F12110C7B
:100A4000C083C082900192E0D082D08312123E1205
:100A500003C5121106C083C082900192E0D082D0FB
:100A60008312123E1203571201389001931203C5EC
:100A70009001921211DF40B4900190E0245EF89052
:100A800001931211A1120153780712029712113526
:100A90001203C5900192E0FFFBE4FAF9F812113558
:100AA00012033F1201DE9001931203C590019312CD
:100AB000033F900190E0FB25E025E0242EF812038F
:100AC000D190019312033FEB25E025E024AFF5829E
:100AD000E43400F5831203C5E4900191F090019194
:100AE000E0FFC39405501A900190E075F00AA42429
:100AF000D4F582E434001212441210FE12124D801A
:100B0000DCE4900191F0121106C083C08290019143
:100B1000E0D082D08312123E1203C512124DE0B40F
:100B200007E4900190E025E024DFF582E434001230
:100B300010FC900190E004F0E0C394015003020A1D
:100B400012E4900190F0900190E0FBC39401400307
:100B5000020C60EB12113912033F12114FEB25E02A
:100B600025E02499F582E43400F5831203C51211BF
:100B7000E7249DF582E434001210FCEF25E0249F69
:100B8000F582E434001210FCEF25E025E024A1F505
:100B900082E43400F5831203DD00075300900190D6
:100BA000E0FF24E1F582E43400F5837408F0EF25DA
:100BB000E024321211AAEF25E02436F8E4F208F21C
:100BC000EF25E024341211AAEF25E025E024A5F555
:100BD00082E43400F5831203DD000000001211E707
:100BE00024ABF582E43400F583E4F0A3F0EF25E0D4
:100BF00024ADF582E434001210FCE4900191F090F1
:100C00000191E0FFC39420501A900190E075F040EC
:100C1000A424E8F582E434001212441210FE1212E9
:100C20004D80DC1211E72429F582E434011210FC16
:100C3000EF25E024E4F582E434001210FCEF25E017
:100C400024E6F582E434001210FCEF25E024E2F5FE
:100C500082E434001210FCEF25E02459F582E434DC
:100C600001F583E4F0A3F0900190E004F0020B366C
:100C700022E47FE87E03FDFC12035702015325E0C6
:100C800024E4F582E43400F583EEF0A3EFF0229043
:100C90000186E025E025E02486F582E43400F58332
:100CA00022AB07AA06A905A804E025E02290018648
:100CB000E025E02491F582E43432F583E493229038
:100CC000019B1203C590019312035790019B1203DD
:100CD0003F0201DEF81203631201537807120297F4
:100CE000900185E0FB25E025E022F8EEF208EFF226
:100CF000E004F02225E0249DF582E4340022FFD3B5
:100D000090018CE09F90018BE09E2290018B12035A
:100D100057020138900186E075F040A424E8F97488
:100D20000035F0FA7B0122A804A905AA06AB071238
:100D3000033F020145900186E025E025E02482F58D
:100D400082E43400F58322ED25E024E6F582E434E4
:100D5000002225E02418F8E2FE08E2FF229001912B
:100D600012044302005EF583E0FEA3E02225E024A6
:100D7000E2F582E434002275F01CA424B4F9740076
:100D800035F0FA7B012275F00AA424D4F9740035F9
:100D9000F0FA7B0122F583E0FFA3E0900195CFF00C
:100DA000A3EFF022900186E0FD25E0249FF582E488
:100DB000340022900186E025E02461F582E43401CC
:100DC0002225E02414F8E2FC08E2FD22F8E6FFE424
:100DD000FCFDFEEB25E025E022E025E025E02408EF
:100DE000F8221202978F278E268D258C242212033B
:100DF0004BEC4D4E4F2225E024D0F582E43400F533
:100E00008322E47FFF7EFFFDFC020357FA900191ED
:100E100012044C900194221203C590019702033FE3
:100E2000F81203D1EB25E025E02224AFF582E4346B
:100E300000F5832224E1F582E43400F58322E49076
:100E40000188F0EF7003020EE812003EE490018783
:100E5000F0900187E0FFC394025010EF1211791255
:100E6000040E0000000012119A80E61234AFE490E4
:100E70000187F0900187E0FF121179C000122C3435
:100E8000120138D000121197E0C3940240E590019E
:100E9000881211DF40D5E4900187F0900188E0FFCF
:100EA000E4FCFDFEC004C005C006C007900187E059
:100EB00012117912034BD003D002D001D0001201DD
:100EC000DEC0041211D8900187E0245BF8E6FFE44D
:100ED000FCFDFED0001201539001891203C5900160
:100EE0008912033F780712029712123725E024086F
:100EF000F8121197E0B402A3E4900187F090018703
:100F0000E0FFC394024003020F97EF121169E47BE4
:100F1000107A27F9F8C3120286900187E0FB502768
:100F2000121169EF24F0FFEE34D8121156EB25E0D0
:100F300025E0243BF81203D11212372410F874274D
:100F4000F2087410F2801D25E025E0243BF812041D
:100F50000E00000000EB1211691212372410F8EE97
:100F6000F208EFF2900187E0FB12117912040E00F3
:100F7000000000EB25E0245BF8E4F208F290018722
:100F8000E0FF25E02410F8E2FC08E2FDEF25E02474
:100F900014F8ECF208EDF2E025E02418F8E4F20889
:100FA000F2E004F0020EED227F6B9000AD1210EA29
:100FB0007F67E4FDFC1236ED7F73C00790016D1270
:100FC000033FAD07AC06D0071236ED7F6FE4FDFCA2
:100FD0001236ED7F7B90009D1210EA7F7790009F84
:100FE000E0FCA3E0FD1236ED7F83C007900165129F
:100FF000033FAD07AC06D0071236ED7F7F90014D61
:10100000E0FCA3E0FD1236EDE4900185F09001854F
:10101000E0FEC454F0248512309F1230E21210E139
:10102000FEC454F0248712309F1230BF1236ED9068
:101030000185E0C454F024897D647C001210F3FB28
:1010400025E025E0242AF812034B780A120297EBD8
:10105000C454F02493F8A607900185E0301822C408
:1010600054F0248F1210D124911210D1248B7D3989
:101070007C301210F3C454F0248DFF7D397C308015
:101080003FFEC454F0248FFFEE25E024321210C33B
:10109000FEC454F02491FFEE25E024341210C3FE68
:1010A000C454F0248BFFEE25E02438F8E2FC08E27B
:1010B0001210E1C454F0248DFF900137E0FD7C0054
:1010C0001236ED900185E004F0E0C3940150030274
:1010D0000FFD22F8E2FC08E2FD1236ED900185E0FA
:1010E00022FF7D397C301236ED900185E0C454F04A
:1010F00022FD1236ED900185E022E0FCA3E0FD1216
:1011000036ED22FF1236ED900185E022F5837475ED
:10111000F0A37430F02290019312033F900190E00D
:1011200075F01CA424B4F582E43400F58322E5BAFA
:10113000F053BA0F43BA1022E0F5BA75AC0375AD9F
:10114000C075AEC022900190E025E025E024D0F5E6
:1011500082E43400F58322900067E0FF022C43EF25
:1011600024D0FFEE348AFEED34FFFDEC34FFFC2288
:10117000EF25E025E02400F82225E025E02408F80A
:1011800002034B90018702033F25E025E0244FF83E
:1011900022FFF5AD8FAE53AACF2253BA0F43BA2028
:1011A00075BB7A75A9C0221203D1900187E004F0C3
:1011B00022E6FFE4FCFDFE020357F87475F20874A2
:1011C00030F222E0F5B3A3E0F5B2A3E0F5B122746A
:1011D000017E00A8070822E0FF7401A80708221278
:1011E0000357C3020286A804A905AA06AB0722E09A
:1011F00004F0E0C3940722900190E0FF25E02290E4
:101200000067E090328093F5AB22F583E493FC74A1
:101210000193FDEF221203D19001B3E004F022907C
:10122000018B12033F9001872290018912033F90A6
:1012300001852290018A12033F900186221203D178
:10124000900186E004F022900187E025E02275F00D
:1012500004020427F58375F002EF02042790019140
:10126000E004F022900185EEF0A3EFF0E490018815
:10127000F0900187F0900187E0FBC39402400302E5
:10128000133590014AE09400900149E09400401029
:101290009001871223E312040E0000000002132CB9
:1012A000EB25E0245CF9E3700219E370081223F7E0
:1012B0001224648030900187E0FD25E02457122439
:1012C00018ED1223FC123651C390015FE09F90018C
:1012D0005EE09E50101223F71224641223E31204DE
:1012E0000E00000000900187E01223EFC0001203FF
:1012F0004BC006C007900187E025E0241012245857
:10130000D007D006120138D0001203D1900187E037
:10131000FF25E0245BF808E22401F218E23400F231
:10132000EF25E0245CF9900185E0FEA3E0FFC3E334
:101330009F19E39E4006900188E004F0900187E049
:1013400004F0021265900188E064027064900187E5
:10135000F0900187E0FFC394025054EF25E0245B36
:101360001224184E6049E4FCFDC004C005C006C04C
:1013700007E01223EF12034BD003D002D001D000BC
:101380001201DE900187E0FD25E02414F8EEF2085A
:10139000EFF2ED25E0245BF8E4F208F2ED1223EF22
:1013A00012040E00000000900187E004F080A2C249
:1013B000172290013DE475F0011200BDD390014663
:1013C000E09400900145E094004003122DE1D39099
:1013D0000148E09400900147E094004003122DE1A1
:1013E000D3900164E09400900163E0940040031204
:1013F0002DE1D390014AE09400900149E09400402F
:1014000003122DE1D3900156E09400900155E09431
:1014100000400F122DE1900155E07002A3E0700230
:10142000D210D3900154E09400900153E094004016
:1014300003122DE1D390013CE0940090013BE09435
:10144000004003122DE1E4900185F0900185E0FF5A
:10145000C3940140030214EA74017E00A8070880C7
:1014600005C333CE33CED8F9FF900134E0FDEF5DF4
:10147000601A122DE8F583E4F0A3F0122E15F0A304
:10148000F0EF122DF7E4F0A3F00214CB900185E009
:10149000122DEDF583E0FEA3E0D39400EE9400401E
:1014A00024122DE8122DDFEF122DEDF583E0FEA3BF
:1014B000E04E70117F0D123406900185E0122DF779
:1014C000EEF0A3EFF0900185E0FF122DF7122E2E23
:1014D0004009122E1575F0011200BD900185E0FF44
:1014E000122E39F583122E2E4007EF122E39122DAF
:1014F000DF900185E004F002143B22782412034BB4
:101500009001871203C5782E12034B90018B1203B2
:10151000C5E4900186F0D3900148E0940090014723
:10152000E09400403C90018712033F90007A120340
:10153000C590007A12033F900186120C9124B9F5F0
:1015400082E43432F583E493FE740193FFEE339525
:10155000E0FDFC120153780A1202AA120C7F12035A
:10156000C5120C7F12033F90007A120CFEC004C01B
:1015700005C006C007120C7F12033F900187120CB2
:10158000FE9001931203C59001971203DD00010044
:1015900000D007D006D005D0041226F1120D251276
:1015A00003C59001931203DD00010000120D251206
:1015B000033F9001971203C590018B12033F12263F
:1015C000F1900186120CD3120E1A1203C5EB120D04
:1015D00067C002C001900186E0FF24B3F9E4340043
:1015E000FA90019212044C9001957407F0EF25E0F7
:1015F00025E0120E1A12033F9001961203C5D00186
:10160000D0021231BC900186E0120D677D07121ED8
:10161000C7AF41AE40AD3FAC3E900186E025E01241
:101620000DE61203C5900186E004F0E0C39401507A
:101630000302150622439F04E453C6DFE5C600B546
:10164000C6F375830075820775FD0DE4E5FEF4FFB2
:1016500075830075820675FD0DE4E5FEB50704F59A
:101660009E8003759E0078100000D8FC53C6E043AE
:10167000C60843C680759607759705758300758201
:101680000475FD0DE5FD0404F58F75830075820377
:1016900075FD0DE4E5FEF4FF75830075820275FDAE
:1016A0000DE4E5FEB50704F595800375958375BED9
:1016B0000E5392FE9001007F007E02E4F0A3DFFC57
:1016C000DEFA78007F00E4F208DFFC78FFE4F6D869
:1016D000FD7581C502170502000002278BE493A364
:1016E000F8E493A34003F68001F208DFF48029E4D4
:1016F00093A3F85407240CC8C333C4540F4420C820
:10170000834004F456800146F6DFE4800B010204B6
:1017100008102040809034FAE47E019360BCA3FF5F
:10172000543F30E509541FFEE493A360010ECF54EB
:10173000C025E060A840B8E493A3FAE493A3F8E4DA
:1017400093A3C8C582C8CAC583CAF0A3C8C582C846
:10175000CAC583CADFE9DEE780BE745C2FF582E488
:101760003401F583E4F0EF25E0244BF582E4340105
:10177000F583E4F0A3F0EF25E0244DF582E4340195
:10178000F583E4F0A3F0EF25E0244FF582E4340183
:10179000F583E4F0A3F0EF25E02461F582E4340161
:1017A000F583E4F0A3F022900187E0FF900186E04A
:1017B000FE7401A8060822EF25E024ADF582E4348A
:1017C00000F58322900186E0FF25E02491F582E474
:1017D0003432F58322900188E0FF25E022A3E0FF68
:1017E000900188E025E022F583E0FCA3E0FDEF25F1
:1017F000E02224ABF582E43400F583E0FEA3E0228E
:1018000025E024A5F582E43400F58322745C29F5F3
:1018100082E43401F58322EF25E02439C3F9E39D06
:1018200019E39C222434F8E2FC08E2FD222432F879
:10183000E2FE08E2FF2225E0244BF582E434012297
:1018400090013CE0940090013BE09400229001481C
:10185000E09400900147E0940022F582E43401F521
:10186000832225E02459F582E4340122F583E475CE
:10187000F0010200BDE4900187F0900186F0900134
:1018800086E0FBC39401400302194F900135E070DC
:10189000761218304056900186E0FF25E024DFF5EF
:1018A00082E434001217D7249DF582E43400121725
:1018B000E9C39DFFEE9CFEE4FCFD9001881203C588
:1018C000EB1217B9E493FE740193FF7C007D0312C1
:1018D00000ABE4FD900188120357D31202704076EA
:1018E0001217978002C333D8FC0219411217B4E4CF
:1018F00093FC740193FD121807405B121797800246
:10190000C333D8FC02194130162B900186E0FD123A
:1019100017B974019325E0FFE49333FEED25E0242D
:1019200039F9C3E39F19E39E402C1217978002C335
:1019300033D8FC801C1217B474019324E2FDE493A5
:1019400034FFFC121807400E1217978002C333D8D9
:10195000FC4F900187F0900186E004F002186E9031
:101960000187E0FF9001C7F022E4FDED25E030059E
:101970000924A1F582E4343280072489F582E43415
:1019800032F583E493FE7401931223D5EEF0A3EFB6
:10199000F00DEDB402D5E4FD74017E00A8050880C9
:1019A00005C333CE33CED8F9FF900132E0FBEF5BB5
:1019B0007003021A2CED25E0244712241812241F6C
:1019C000402AD3EB942CEA9401ED400E25E0244705
:1019D000F87401F208742CF2801225E0241C122401
:1019E00018ED25E02447F8EEF208EFF2ED25E024AB
:1019F00099F582E43432F583E493FE740193FFEDAC
:101A000025E0241DF9D3E39F19E39E404312243EB1
:101A1000CEC313CE13D8F91223D5E0FAA3E0D39F97
:101A2000EA9E40091223D6E0FEA3E0800A12243E7B
:101A3000CEC313CE13D8F912242F80141223D6E06C
:101A4000FEA3E012242FED25E02447F8E4F208F28B
:101A50000DED64026003021988229001857407F07D
:101A6000A3F0A31203DD0000000012003E900185E8
:101A7000E0FF601B1211BF8005C333CE33CED8F90F
:101A8000FFADACEF5D7008900185E014F080DE9052
:101A90000186E0FF601B1211BF8005C333CE33CE39
:101AA000D8F9FFADAEEF5D7008900186E014F080CC
:101AB000DE9001851211C78002C333D8FCF5AC90CB
:101AC00001861211C78002C333D8FC121181900124
:101AD0008F12111E1234AFE4900185F0900186E060
:101AE0002463122C3A90018B1203C512120F1211AB
:101AF000CF500612120F1203C5900185E004F0E0EA
:101B0000C3940240D7900187120357C0001211738B
:101B10007803120297D0001201389001871203C592
:101B2000121173785F1203D1121173781012029799
:101B30008FB312117378081202978FB21211738F3C
:101B4000B143AA3090018F1211282220CA03021C2F
:101B50002BE5467003021C2BE4FF74462FF8E6FECB
:101B600074862FF582E43401F583EEF0E4F60FEF8E
:101B7000B40AE7900186E0FF54F0FEEF540F9001A5
:101B800085F0AF06EF1204611B91501B98601B9FFC
:101B9000701BB6901BF7A01BD6B01C28C000001C01
:101BA0002B7858E64401805C7858E654FE8055E472
:101BB000785AF6FF12360C785AEFF67856BFFF03C4
:101BC00076042276FF22900185E0FF700A7858E6BD
:101BD00030E16854FD802DEF6401705F7858E62095
:101BE000E1594402801E900185E0FF700A7858E6B2
:101BF00030E54854DF800DEF6401703F7858E620EF
:101C0000E5394420F6802D900185E0FD701278586A
:101C1000E630E22754FBF690015DE04408F08014C2
:101C2000EDB401177858E620E2114404F690015D06
:101C3000E04404F0751C022212351D2290018574C7
:101C400007F0FBA31203DD0000000012003E90012C
:101C500085E0FF601B1211BF8005C333CE33CED8A1
:101C6000F9FFADACEF5D7008900185E014F080DE07
:101C7000EB601A74017E00A803088005C333CE33DD
:101C8000CED8F9FFADAEEF5D70031B80E390018508
:101C90001211C78002C333D8FCF5AC7401A8030845
:101CA0008002C333D8FC12118190018E12111E12D2
:101CB00034AFE4900185F0900185E0FFC3940150BA
:101CC00027746B2FF582E43400122C3F90018A12A6
:101CD00003C51212231211CF50061212231203C58C
:101CE000900185E004F080CF900186120357C00078
:101CF00090018612033F7803120297D00012013838
:101D00009001861203C590018612033F90012B12A9
:101D100003C543AA3090018E1211282212003E9072
:101D2000018B12111EE4900185F0900185E0FFC344
:101D30009402501212116012040E00000000900173
:101D400085E004F080E49001857405F075ABFF1226
:101D500034AFE4900186F0900186E0FF121161C07B
:101D600000122C34120138D00012122DE0C394025C
:101D700040E5E4F5AB1234AFE4900186F0900186C3
:101D8000E0FFC39402502E121160C00012034BC03A
:101D900004C005C006C007900186E02463122C3AF7
:101DA0001211D6D007D006D005D004120145D000BC
:101DB00012122D80C8900185E014F0E0708EE4903E
:101DC0000186F0900186E0FBC394025026A3120323
:101DD000DD00148200EB121161120363900187127F
:101DE000033F1201DE900186E0245BF8A607E004C1
:101DF000F080D090018BE0F5BA22C0E0C0F0C08343
:101E0000C082C0D075D008C2CFD21130CD03021E1F
:101E1000BC20CC6130CB2385CE54E554C3948040A4
:101E20001675F003E5549027381204271204558BD9
:101E3000518A5289538079021EB285CE35E554709D
:101E400022E535B410099001C8E0F45280807BE5AA
:101E500035B420089001C8E04280806E8535460583
:101E6000548067E554C3940A500774462554F8A675
:101E70003505548055E554B4C0057546C0804BE522
:101E800054B4C1107858E630E105754690803B7532
:101E900046918036E554B4C2107858E630E20575B4
:101EA00046A080267546A18021E554C39480401049
:101EB0007851E475F00112043312005EF5CE800A09
:101EC0000554E5502554F8E6F5CED210D0D0D08296
:101ED000D083D0F0D0E03290018F12044C90019268
:101EE000EDF0E4F528F527F526F52574FFF52CF53A
:101EF0002BF52AF529E4F530F52FF52EF52DF524EF
:101F0000900192E0FFE524C39F507090018F12046E
:101F10004375F004E524A4F58285F0831202D18F85
:101F2000348E338D328C31AF28AE27AD26AC25D31D
:101F3000122E23400C85342885332785322685319F
:101F400025AF2CAE2BAD2AAC29C3122E23500C8505
:101F5000342C85332B85322A853129E5302534FF11
:101F6000E52F3533FEE52E3532FDE52D35318F3049
:101F70008E2F8D2EF52D0524021EF08528398527FC
:101F800038852637852536852C3D852B3C852A3B93
:101F900085293A853041852F40852E3F852D3E90FD
:101FA0000192AF30AE2FAD2EAC2D122E0322900138
:101FB00033E0FF900132E0FE6F601D900138E0FDDC
:101FC000900137E0FC6D60103001047855A60630B2
:101FD000022B7864A6048025900132E0FE6F600D2C
:101FE00030011A7855A606E47864F680101230CBDA
:101FF000600B3002087864A606E47855F61230CB00
:102000006016EE540F600B20140E7864E64480F6E0
:1020100080067864E6547FF6900134E0FF90013941
:10202000E06F6016EF540F600B20140E7864E644E6
:1020300040F680067864E654BFF6D390013CE09405
:102040000090013BE094007864E640054408F68087
:102050000354F7F67864E63014054404F68003541C
:10206000FBF6900132E0A3F0900137E0A3F0227B71
:10207000077A079001851203DD0000000012003E80
:10208000EB601A74017E00A803088005C333CE33C9
:10209000CED8F9FFADACEF5D70031B80E3EA601AA8
:1020A00074017E00A802088005C333CE33CED8F970
:1020B000FFADAEEF5D70031A80E3AF037401A807B4
:1020C000088002C333D8FCF5AC7401A80208800272
:1020D000C333D8FC12118190018D12111E1234AF3E
:1020E0001211479001891203C51212191211CF5013
:1020F000061212191203C5900185120357C00090F1
:10210000018512033F7803120297D0001201389024
:1021100001851203C590018512033F9000921203BE
:10212000C543AA3090018D1211282290018E12040D
:102130004C900191EDF0E4F525F52674FFF527F5B7
:1021400028E4F52EF52DF52CF52BF524900191E0E2
:10215000FFE524C39F505990018E12044375F0028D
:10216000E524A4F58285F0831200D3F52A85F029B1
:10217000D39526E52995254006852925852A26C358
:10218000E52A9528E52995275006852927852A28B7
:10219000E4FCFDE52E252AFFE52D3529FEED352C45
:1021A000FDEC352B8F2E8E2D8D2CF52B0524809C50
:1021B000E4852639852538F537F53685283D852788
:1021C0003CF53BF53A852E41852D40852C3F852BEE
:1021D0003E900191AF2EAE2DAD2CAC2B122E0322D2
:1021E000900134E0900139F0121865900134EFF05D
:1021F000D312183D500E900134E0FF122BC0EF7047
:1022000003022284900135E0702F122ACA7F021245
:102210003406D3121830401E30140DEF7803CEC3AD
:1022200013CE13D8F9FF800EEEC4F854F0C868FE40
:10223000EFC4540F48FF120790900135E0FFA3E070
:102240006F6051122823E4900185F0900185E0FF32
:10225000C394015039EF2404FF74017E00A80708DD
:102260008005C333CE33CED8F9FF900137E0FDEFC0
:102270005D60137F08123406900185E0121826F580
:1022800083EEF0A3EFF0900185E004F080BD9001B3
:1022900035E0A3F022E4900186F0900186E0FF1281
:1022A0000DB1EF25E02410120D46D39DEE9C401495
:1022B000E0120DB1C3EF9DFFEE9CFEE4FCFDA31206
:1022C00003C5800A9001871203DD00000000900121
:1022D0008712033F78071202BE9001871203C59050
:1022E0000186E0120D42E4FCFD78071202BE900167
:1022F0008B1203C5900130E070127F03FEFDFC904D
:102300000187120C68120CFB7802800B9001871277
:10231000033F120CFB780112029790018B1203C548
:1023200090018B12033F7807120297900186E025F7
:10233000E02418120CDAE06402600302228A22E42C
:10234000FF12360C7856BFFF047604800276FFE455
:102350007855F67857762608F6785AF6FFEF25E096
:102360002489F582E43432F5831230E2FDEF75F012
:1023700008A424651230B775F008A424671230D77A
:1023800024691230D7246BF8E4F608F60FEFB40294
:10239000CCE4FFEF1230A11230E2FDEFC454F02480
:1023A000851230B71230A11230BFEFC454F0248729
:1023B0001230B7C454F02489F87600087664EFC46C
:1023C00054F0248B1230AD248D1230AD248F123096
:1023D000AD24911230AD2493F8E4F60FEF64017050
:1023E000B275505522FFED25E02485F582E43401D5
:1023F000F58322E0FF25E0245BF8E4F208F2EF2504
:10240000E025E0244FF822900187E0FF25E024102A
:10241000F8E2FC08E2FD22900186E025E02441F587
:1024200082E43401F583E422F8E2FE08E2FF22EDC3
:1024300025E0241CF8E2FA08E2FBD39FEA9E22FF83
:10244000ED75F008A42465F8A60608A60722ED2578
:10245000E02447F9E3FE09E3780222EE25E0241D9B
:10246000F9C3E39D19E39C22F8E2FE08E2FBAA0609
:10247000E4F9F822EF25E02457F8ECF208EDF22217
:10248000ED2404FF7401A80708227858E6F520A27D
:1024900008300001B3501B7F04123406EEC313FE54
:1024A000EF13FF900163EEF0A3EFF012351DA200D1
:1024B0009208A209300101B35012122EFF3001051B
:1024C0001225118003123712A2019209301205124F
:1024D0002511C212A20A300201B35004A202920ACC
:1024E00030130512351DC213A20D300501B3503053
:1024F000E4FFEF25E030050924A1F582E4343280C1
:10250000072489F582E434321211FA75F008A42404
:1025100065F8A60408A6050FEFB402D6A205920D31
:1025200022E4FF1234350F120E2E22E4900185F0C2
:10253000A3F030111790013FF0A37446F07F0C1206
:102540003406900153EEF0A3EFF0C211A2149215DD
:102550002001253002028020D3900148E0940090B1
:102560000147E094005011900154E0940090015311
:10257000E09400500320100D90013FE4F0A3744656
:10258000F0C214800B90013FE4F0A37403F0D21466
:10259000301408E4FF1233D412355EA21530140152
:1025A000B35017900135E06004D216800D7F0312FE
:1025B000340690013BEEF0A3EFF0900135E0700897
:1025C00030160312351DC21622300145E4900185F4
:1025D000F0900185E0FB245B120DBC2400120CC4BA
:1025E0002408120E10243BF812034BEB120DCA12F2
:1025F0000363C3120286400B900185120DC9120DB0
:10260000DE70037F0222900185E004F0E064027036
:10261000C0785DE6FFE4FCFDFE7820120363120142
:1026200053780712029778241203D17824120DDE12
:1026300070037F0222E4900185F0900185E0FB2485
:102640005E120DBC242A120CC4242E120E10242E4D
:10265000F8120DDE70037F0222900185E004F0E0A5
:10266000B401D77F0422C0E0C0F0C083C082C0D0D4
:1026700075D01053B9FDE51D6401702C9001B3F0C5
:102680009001B3E0FFC39402500F122C379001B3B6
:10269000E012116112120580E77F0112353E43B945
:1026A00001D2D8751D02804EE51DB40217121147E4
:1026B00078201203D17F011235D843B901D2D875E1
:1026C0001D068032E51D6406702C9001B3F0900168
:1026D000B3E0FFC39401501B746B2FF582E4340008
:1026E000122C3F9001B3E025E025E0242AF81212D5
:1026F0000580DB751D00D0D0D082D083D0F0D0E033
:102700003290018F1203C5E47BE87A03F9F8900157
:102710008F120CBE90019F1203C590019F120C6195
:1027200090018F120D179001A3120E0790019F12B6
:102730000C68120CAF9001A71203C590019312030D
:102740003F9001A7120C6890019B120D179001ABEE
:10275000120E079001A3120C6890019B1203C59002
:10276000019B120357C000C001C002C0039001AB1F
:10277000120C61D003D002D001D000120138120C2B
:10278000AF9001AF1203C5E47FE87E03FDFC90012A
:10279000A7120C689001AF120CFE221234601236A0
:1027A000DC1236FD12232F12359C12336F1230E9E2
:1027B000D2AF751C01E51C24FE6021146039146041
:1027C000491460532404706012369312366712362F
:1027D000A612367D1236237F021232C1D2D8E4907F
:1027E000013DF0A3F09001B4F0A3F012247AE51DAE
:1027F00070FC1234D5802CD2D8E51D70FC1225B99E
:102800008F1C12251B1234D5802112323F8F1C12CF
:102810000F981213A280143001031229451221D0FF
:10282000121F9E751C038003751C01123717121BA3
:102830003B8082900186EFF090015DE0600302280A
:10284000B7F9FFFE7401A806088002C333D8FCFD67
:10285000900186E05DFC900136E05D6C600D300219
:102860000A20180790015DE04402F0900136E05D17
:10287000B50513EE2404FC7401A804088002C333D8
:10288000D8FC49F9800D7401A806088002C333D82A
:10289000FC49F9900186E05DB5050F7401A80608B2
:1028A0008002C333D8FC4FFF8011EE2404FD740175
:1028B000A805088002C333D8FC4FFF0EEE640170F8
:1028C00083E95F900137F022FE0010FE0028FE0031
:1028D00032FE0014FE0034FE0018FE0036FE001C1E
:1028E000FE0038FE0000FE0020FE002AFE0008FE6A
:1028F0000024FE002E01009D01009F0100E1010067
:102900007A0101C50101C601012F01013001013227
:102910000101C70101340101350101370101410104
:10292000013D01013F010145010147010153010141
:102930005501015D0100E801016301016501016DBF
:1029400001017501017D0100AF0100740100E40186
:1029500000E60100E2121959122F5890012FEFF0F2
:1029600012000EEF6074900130E0703E1234881255
:102970002E437F01123406D3900146E0940090016B
:1029800045E0940040028011301702800CC3784C5F
:10299000E2941E18E29400500EEEC4F854F0C86899
:1029A000FEEFC4540F48FF121254900130E0FF12A2
:1029B0002EA1900130E0FFA3E06F601E1229CB90A2
:1029C0000132E054F0600D7F07123406900149EEA9
:1029D000F0A3EFF0900130E0A3F022900185EFF03A
:1029E000E4FAFE90015DE07072FD7401A8050880B4
:1029F00002C333D8FCF9900185E059FC900131E025
:102A0000596C600790015DE04401F0900131E0599C
:102A1000600D1224708002C333D8FC4AFA800D7412
:102A200001A805088002C333D8FC4AFA900185E06A
:102A300059600F7401A805088002C333D8FC4EFE0C
:102A4000800B1224708002C333D8FC4EFE0DED645F
:102A5000027097AF06EA5F900132F02212003E90BA
:102A6000018612111E782012040E00000000900151
:102A7000857405F075ABFF1234AF78201203631232
:102A8000114712013878201203D1E4F5AB1234AFAC
:102A9000782012034BC004C005C006C007121147BE
:102AA0001211D6D007D006D005D0041201457820E7
:102AB0001203D1900185E014F0E070B87F007E47EA
:102AC0007D227C0078201203631201DE785DA60768
:102AD000900186E0F5BA1211EF22E4900186F090A1
:102AE0000186E0FFC39401506DEF1218261217E91A
:102AF0004E705A900186E025E0121814EF25E0127E
:102B0000181DC39DEE9C503BE025E02435F8C3E240
:102B10009FFF18E29EFED3EF9432EE940040247F94
:102B200005123406900186E0FD12185212185CFA64
:102B3000D3E5F09FEA9E401574602D12184A740187
:102B4000F0800A900186E0121852121790900186C8
:102B5000E004F0022ACF22E4900190F0EF604F12DF
:102B6000003E90008A1203DD000000001234AF9096
:102B7000008A12035712114712013890008A12037B
:102B8000C59001901211DF40E3785D90008A121128
:102B9000A1120153C007900190E0FBE4FAF9F8D0CC
:102BA000071201DE780712029778241203D19000F1
:102BB000741210FEA31203DD0007530078241203E1
:102BC0004B12114F90007E1203C578281211AB22D0
:102BD000900186EFF0E4F99001877405F074017EAE
:102BE00000A801088005C333CE33CED8F9FF900189
:102BF00086E0FDEF5DFD900135E0FBEF5B6D700160
:102C0000E4600D900186E0900135F01217FCE4F0CD
:102C10007858E630E00C900135E07006900187743A
:102C20000AF01217FCE004FFF0900187E0FEEFC30A
:102C30009E50037F00221217FCEEF009E964017038
:102C4000967F012212036374632FF582E43400F54A
:102C500083E0FFEFC39404500553B9EF800343B9F9
:102C600010EF6003B4040B85B71985B61A85B51B40
:102C7000803AEF64016004EFB4050B85EB1985EA37
:102C80001A85E91B8026EF64026004EFB4060B8509
:102C9000F31985F21A85F11B8012EF64036004EFCB
:102CA000B4070985FB1985FA1A85F91BAF1BAE1A03
:102CB000AD19AC18229001911203C590018E120437
:102CC0004C90019112033F78041202BE90019112C0
:102CD00003C5900195E0FF74017E00A807088005F8
:102CE000C333CE33CED8F924FFFFEE34FFFE339545
:102CF000E0FDFC120370120153900191120CFE9042
:102D00000195E0F9F8120DD290018E1204431203DE
:102D100001AF27AE26AD25AC247804120DD2229047
:102D2000015DE054036003122D5A90015DE054FCF4
:102D3000F0900137E0540FFF602890015DE0FE3015
:102D4000E2067864A6078010EE30E31D900137E0BC
:102D5000540FC454F07864F6E47855F62018031242
:102D60002D5A90015DE054F3F022C2107F09123415
:102D700006900155EEF0A3EFF0C2927F217E007D18
:102D8000007C001235F4D29222E4FBFE783AE2FD98
:102D900074632EF582E4340012370AFCED4CF20E17
:102DA000EEB402E8900073E0FE900067E09032809D
:102DB00093FDEE4D900073F0E4FE900096E0FF74FA
:102DC0006B2EF582E4340012370AFDEF4D90009629
:102DD000F00EEEB401E4900073E0FF783AE24FFFAA
:102DE000900096E04F42D442F442E4F452DC22F5E3
:102DF0008374FFF5F00200BD900185E0FF25E0241B
:102E00004BF582E434012225E0244FF582E43401BD
:102E1000F58322E0FBE4FAF9F81201DE8F458E44D7
:102E20008D438C4222EF25E0244DF582E43401F5F8
:102E300083E422AB34AA33A932A831020286E0FC33
:102E4000A3E0D39400EC94002225E02461F582E411
:102E5000340122E4900185F0900185E0FF25E02413
:102E600014122400EF25E02410122418C39DEE9CB8
:102E70005034E025E02415F8C3E29FFF18E29EFEDF
:102E80007C007D64120487C006C007E025E024436F
:102E9000122458D007D0061201DED3EF940AEE9424
:102EA000004003D21722900185E004F0E0B402A8AC
:102EB00022900185EFF0E4A3F0900186E0FFC39437
:102EC00002504B74017E00A807088005C333CE333F
:102ED000CED8F9FF900185E0FDEF5D60237F0612FB
:102EE000340612240775F0011200BDFCD3E5F09FF3
:102EF000EC9E4012E490012FF0A3F01237128006EE
:102F0000122407F0A3F0900186E004F080AB22E4E5
:102F1000FF900130F0A3F090015BF0900149F0A325
:102F2000F0900132F0A3F0C217EF25E02443122401
:102F30000090015EEC8DF01200BDEF12240BF0A3A7
:102F4000F00FEFB402E390015EE0C313F0A3E013CF
:102F5000F090015EE0FEA3E07802CEC313CE13D85A
:102F6000F9F0EE90015EF022E4FFFE900130E07097
:102F700021EE75F008A42465F8E6FC08E6FD1224AD
:102F80004B40327401A806088002C333D8FC4FFFBF
:102F90008023EE75F008A42466F8E624FDFD18E60B
:102FA00034FFFC12244B400D7401A806088002C3B4
:102FB00033D8FC4FFF0EEEB402B19001C5EFF02202
:102FC000E4900186F0900186E0FFC394025043EF45
:102FD00025E025E0243BF8120363C000900186122F
:102FE0000DC912034BD0001201459001871203C591
:102FF000900187120DF2C312028640037F022290D5
:10300000018712033F900186E025E02410120CDABC
:1030100080B37F0522A907E4FFFEEEC394005010A1
:10302000746F2EF582E4340012370A4FFF0E80EAE7
:10303000E96005EF42D48004EFF452D4EFF4FE527D
:10304000F4EF42E4ED6005EF42EC8003EE52ECEF6A
:10305000F4FE52DCEB6005EF42808003EE5280907C
:1030600001C8EFF022E4900186F0900186E0FFC3F2
:103070009401503AEF25E02436120D467C007D6421
:10308000120487C006C007E025E02497F582E434E7
:1030900000120D56FBAA06E4F9F8D007D00612017B
:1030A000DE900186E025E02438120CDA80BC22FF95
:1030B000EE25E02491F582E43432F58322F8E4F63B
:1030C00008F6EFC454F022F8A60408A605EF22740F
:1030D000019324E2FDE49334FFFC22900138E0FFE9
:1030E000900137E0FE6F22F8E4F608F6EF75F0087D
:1030F000A422E493FC74019322E4FFEF25E024A9C9
:10310000F582E43432F583E493F8740193FDEF25FE
:10311000E02443C8F208EDF20FEFB402DEE4FFEF63
:1031200025E024B1F582E434321211FA25E0249727
:10313000F582E43400F583ECF0A3EDF00FEFB40179
:10314000DE22C0E0C0F0C083C082C0D075D000C015
:1031500000C28D758C32758AEB9001B4E475F00174
:103160001200BDC39001B5E094149001B4E0940046
:10317000400A90013DE4F0A3F0120004D000D0D04A
:10318000D082D083D0F0D0E032E4900186F090017C
:1031900086E0FFC394025033EF120D427C007D6441
:1031A000120487C006C007E025E02443F8E2FE08C9
:1031B000E2FBAA06E4F9F8D007D0061201DE90017E
:1031C00086E025E0241C120CDA80C32290019612BE
:1031D000033FC003C002C001900192120D5075F070
:1031E00004A4F58285F083D001D002D00312031B22
:1031F0009001921204437401120077900192120D13
:1032000050FF900195E0B50704E412009922900167
:1032100095E0FEA3E0FFC003C002C001120D4D7592
:10322000F002A4F58285F083D001D002D003EE8FA6
:10323000F012010B900191120443740112007712F5
:103240000D4DFF900194E0B50704E412009922901F
:1032500001857405F0300116122FB0900185EFF052
:10326000BF0205D212E0FF221222851231791233F9
:10327000A21214EB1204F9900185EFF0BF0205D2FF
:1032800013E0FF221232FF123055900185E0FF2239
:1032900001020408102040806A00320032003C0025
:1032A0003C0190003C003C003C00780078003C0071
:1032B0003C03E803E8003C003C0082012C00640071
:1032C000640064006400640064FFE5000000000026
:1032D00000EF6003D38001C392099201EF6003D332
:1032E0008001C3920A92027858A60790013FE4F049
:1032F000A37446F07F0A123406900145EEF0A3EF66
:10330000F07F0B123406900147EEF0A3EFF022E4B9
:10331000FFEF25E02434120DB5EF25E02432F8E26A
:10332000FA08E2FBD39DEA9C4012EB9DFDEA9CF873
:10333000EF25E02436C8F208EDF2800AEF25E024FC
:1033400036F8E4F208F20FEFB401C62290018E12B3
:1033500003C590019212033F90018E120357D312BE
:103360000286400B90019212035790018E800990C3
:10337000018E12035790019212033F12014522431E
:10338000F80875CD4053CC7F43CC4043CC2043CC90
:103390001043CC0453CCFD43CB0243CB0153CBBFF2
:1033A000D2EB53E5FC43E30243F50343900343EDC3
:1033B000032290007E12033FAB07AA067824120373
:1033C0004BC3EF9BFFEE9AFE7B017A007976E4FC1B
:1033D000FD9001957405F0122CA57828EEF208EF07
:1033E000F27F0522E4F51D53B9FD53B9DF43CC024A
:1033F000C2D9539FFD438760C28DEF700675BD0D26
:1034000075BC011236CB75BE0CD28C20C903438724
:103410000300000000227D017C00EFC3940F5020C8
:10342000EF25E024BBF582E43435F583E493FF7E99
:103430000090013FE0FCA3E0FD1200ABAC06AD073D
:10344000AE04AF052253BA0F43BA2075BBFF75A96E
:1034500050783AE2F5B4EF7009F5B375B24E75B134
:1034600020227860E2F5B308E2F5B208E2F5B12275
:10347000E4F5E3439F107F03FEFDFC1235F4439F08
:10348000027F037E007D007C001235F475BE0EE4E1
:10349000F5BFF5B975927622781CE2FE08E2FF903E
:1034A0000185EEF0A3EFF07D0112241F4004AE026F
:1034B000AF030DEDB402F2784BEEF208EFF2227595
:1034C000BF0F00000000000000000000000000002E
:1034D00000000000D2D853B9FD43B901E5B930E18D
:1034E000FBE4F5BF227F01300108123435751D0160
:1034F000800612353E751D0275BF0F43B92053B9C2
:10350000FD43BA0143B901D2D8224400630304FF4A
:10351000FF44006700FFFFFF44006B06FFFFFF440E
:10352000006FFFFFFFFF04180000000000E51D70A2
:10353000FCE4FF1209FFE4FF122B47E4900135F091
:10354000900137F0FF12174A0FEFB401F822121161
:103550008A900073E0F5B4EF700AF5B375B2757533
:10356000B13080069000931211B31211EF22E49053
:103570000187F075BE0E439F027F03FEFDFC1235EE
:10358000F475BC02E4F5BFD2D953CCFD22EF60053F
:1035900043D504800353D5FB53F5FB53E5FB43E3CD
:1035A0000443ED04E490015DF0D29222438901C20C
:1035B0008DD2A953B8FD12000390013DF0A3F07520
:1035C0008C32758AEBD28CD2AF2200020101020844
:1035D00003050401050106060701080109010A03A4
:1035E0000B140C010D010E0212118A900096E0F5E9
:1035F000B4EF7009F5B375B29C75B1402290012CFF
:103600001211B3229001881203C590018874FF1231
:103610000392EC4D4E4F60030080EF22E4FFF582F1
:10362000F5837440FEE493F42FFFA3EEB583F622F6
:103630007F0022E4900155F0A3F07F0C1234069035
:103640000153EEF0A3EFF0D21022E4900135F0A385
:10365000F0A3F0A3F0C216FF12174A0FEFB401F85F
:1036600022D3EF9DEE9C4007EF9DFFEE9CFE22C310
:10367000ED9FFFEC9EFE22E4FF123435121D0C126A
:103680001A4A7F01123435120E2E022EFFE4FF1269
:1036900035D81236B9121C2C7F011235D81209FF09
:1036A00002363A75AA3B53BAF343BA0812112B43B8
:1036B000B92053B9BF22E4FF12353E122A4C122022
:1036C0005F7F0112353E022B47E4FF785DE6FE7412
:1036D0005E2FF8A6060FEFB401F122438901C28CD8
:1036E000C28F120003758CFB758AED22122D797B37
:1036F000017D01E4FF1230057F0102357D20C90CF8
:10370000C2AFA807A60408A605D2AF2222C2DA5388
:10371000D80F43D8D0D2D8D2D922F583E0903280C6
:103720009322E4FF020E2E022D0FFFFFFFFFFFFF8B
:00000001FF
